{
  "address": "0xB75A282d96Bf30f5BAF211269514B2529f811767",
  "abi": [
    {
      "inputs": [
        {
          "internalType": "address",
          "name": "admin",
          "type": "address"
        }
      ],
      "stateMutability": "nonpayable",
      "type": "constructor"
    },
    {
      "anonymous": false,
      "inputs": [
        {
          "indexed": true,
          "internalType": "address",
          "name": "owner",
          "type": "address"
        },
        {
          "indexed": true,
          "internalType": "address",
          "name": "spender",
          "type": "address"
        },
        {
          "indexed": false,
          "internalType": "uint256",
          "name": "value",
          "type": "uint256"
        }
      ],
      "name": "Approval",
      "type": "event"
    },
    {
      "anonymous": false,
      "inputs": [
        {
          "indexed": true,
          "internalType": "address",
          "name": "facilitatorAddress",
          "type": "address"
        },
        {
          "indexed": true,
          "internalType": "bytes32",
          "name": "label",
          "type": "bytes32"
        },
        {
          "indexed": false,
          "internalType": "uint256",
          "name": "bucketCapacity",
          "type": "uint256"
        }
      ],
      "name": "FacilitatorAdded",
      "type": "event"
    },
    {
      "anonymous": false,
      "inputs": [
        {
          "indexed": true,
          "internalType": "address",
          "name": "facilitatorAddress",
          "type": "address"
        },
        {
          "indexed": false,
          "internalType": "uint256",
          "name": "oldCapacity",
          "type": "uint256"
        },
        {
          "indexed": false,
          "internalType": "uint256",
          "name": "newCapacity",
          "type": "uint256"
        }
      ],
      "name": "FacilitatorBucketCapacityUpdated",
      "type": "event"
    },
    {
      "anonymous": false,
      "inputs": [
        {
          "indexed": true,
          "internalType": "address",
          "name": "facilitatorAddress",
          "type": "address"
        },
        {
          "indexed": false,
          "internalType": "uint256",
          "name": "oldLevel",
          "type": "uint256"
        },
        {
          "indexed": false,
          "internalType": "uint256",
          "name": "newLevel",
          "type": "uint256"
        }
      ],
      "name": "FacilitatorBucketLevelUpdated",
      "type": "event"
    },
    {
      "anonymous": false,
      "inputs": [
        {
          "indexed": true,
          "internalType": "address",
          "name": "facilitatorAddress",
          "type": "address"
        }
      ],
      "name": "FacilitatorRemoved",
      "type": "event"
    },
    {
      "anonymous": false,
      "inputs": [
        {
          "indexed": true,
          "internalType": "bytes32",
          "name": "role",
          "type": "bytes32"
        },
        {
          "indexed": true,
          "internalType": "bytes32",
          "name": "previousAdminRole",
          "type": "bytes32"
        },
        {
          "indexed": true,
          "internalType": "bytes32",
          "name": "newAdminRole",
          "type": "bytes32"
        }
      ],
      "name": "RoleAdminChanged",
      "type": "event"
    },
    {
      "anonymous": false,
      "inputs": [
        {
          "indexed": true,
          "internalType": "bytes32",
          "name": "role",
          "type": "bytes32"
        },
        {
          "indexed": true,
          "internalType": "address",
          "name": "account",
          "type": "address"
        },
        {
          "indexed": true,
          "internalType": "address",
          "name": "sender",
          "type": "address"
        }
      ],
      "name": "RoleGranted",
      "type": "event"
    },
    {
      "anonymous": false,
      "inputs": [
        {
          "indexed": true,
          "internalType": "bytes32",
          "name": "role",
          "type": "bytes32"
        },
        {
          "indexed": true,
          "internalType": "address",
          "name": "account",
          "type": "address"
        },
        {
          "indexed": true,
          "internalType": "address",
          "name": "sender",
          "type": "address"
        }
      ],
      "name": "RoleRevoked",
      "type": "event"
    },
    {
      "anonymous": false,
      "inputs": [
        {
          "indexed": true,
          "internalType": "address",
          "name": "from",
          "type": "address"
        },
        {
          "indexed": true,
          "internalType": "address",
          "name": "to",
          "type": "address"
        },
        {
          "indexed": false,
          "internalType": "uint256",
          "name": "value",
          "type": "uint256"
        }
      ],
      "name": "Transfer",
      "type": "event"
    },
    {
      "inputs": [],
      "name": "BUCKET_MANAGER_ROLE",
      "outputs": [
        {
          "internalType": "bytes32",
          "name": "",
          "type": "bytes32"
        }
      ],
      "stateMutability": "view",
      "type": "function"
    },
    {
      "inputs": [],
      "name": "DEFAULT_ADMIN_ROLE",
      "outputs": [
        {
          "internalType": "bytes32",
          "name": "",
          "type": "bytes32"
        }
      ],
      "stateMutability": "view",
      "type": "function"
    },
    {
      "inputs": [],
      "name": "FACILITATOR_MANAGER_ROLE",
      "outputs": [
        {
          "internalType": "bytes32",
          "name": "",
          "type": "bytes32"
        }
      ],
      "stateMutability": "view",
      "type": "function"
    },
    {
      "inputs": [
        {
          "internalType": "address",
          "name": "facilitatorAddress",
          "type": "address"
        },
        {
          "internalType": "string",
          "name": "facilitatorLabel",
          "type": "string"
        },
        {
          "internalType": "uint128",
          "name": "bucketCapacity",
          "type": "uint128"
        }
      ],
      "name": "addFacilitator",
      "outputs": [],
      "stateMutability": "nonpayable",
      "type": "function"
    },
    {
      "inputs": [
        {
          "internalType": "address",
          "name": "owner",
          "type": "address"
        },
        {
          "internalType": "address",
          "name": "spender",
          "type": "address"
        }
      ],
      "name": "allowance",
      "outputs": [
        {
          "internalType": "uint256",
          "name": "",
          "type": "uint256"
        }
      ],
      "stateMutability": "view",
      "type": "function"
    },
    {
      "inputs": [
        {
          "internalType": "address",
          "name": "spender",
          "type": "address"
        },
        {
          "internalType": "uint256",
          "name": "amount",
          "type": "uint256"
        }
      ],
      "name": "approve",
      "outputs": [
        {
          "internalType": "bool",
          "name": "",
          "type": "bool"
        }
      ],
      "stateMutability": "nonpayable",
      "type": "function"
    },
    {
      "inputs": [
        {
          "internalType": "address",
          "name": "account",
          "type": "address"
        }
      ],
      "name": "balanceOf",
      "outputs": [
        {
          "internalType": "uint256",
          "name": "",
          "type": "uint256"
        }
      ],
      "stateMutability": "view",
      "type": "function"
    },
    {
      "inputs": [
        {
          "internalType": "uint256",
          "name": "amount",
          "type": "uint256"
        }
      ],
      "name": "burn",
      "outputs": [],
      "stateMutability": "nonpayable",
      "type": "function"
    },
    {
      "inputs": [],
      "name": "decimals",
      "outputs": [
        {
          "internalType": "uint8",
          "name": "",
          "type": "uint8"
        }
      ],
      "stateMutability": "view",
      "type": "function"
    },
    {
      "inputs": [
        {
          "internalType": "address",
          "name": "spender",
          "type": "address"
        },
        {
          "internalType": "uint256",
          "name": "subtractedValue",
          "type": "uint256"
        }
      ],
      "name": "decreaseAllowance",
      "outputs": [
        {
          "internalType": "bool",
          "name": "",
          "type": "bool"
        }
      ],
      "stateMutability": "nonpayable",
      "type": "function"
    },
    {
      "inputs": [
        {
          "internalType": "address",
          "name": "facilitator",
          "type": "address"
        }
      ],
      "name": "getFacilitator",
      "outputs": [
        {
          "components": [
            {
              "internalType": "uint128",
              "name": "bucketCapacity",
              "type": "uint128"
            },
            {
              "internalType": "uint128",
              "name": "bucketLevel",
              "type": "uint128"
            },
            {
              "internalType": "string",
              "name": "label",
              "type": "string"
            }
          ],
          "internalType": "struct IGhoToken.Facilitator",
          "name": "",
          "type": "tuple"
        }
      ],
      "stateMutability": "view",
      "type": "function"
    },
    {
      "inputs": [
        {
          "internalType": "address",
          "name": "facilitator",
          "type": "address"
        }
      ],
      "name": "getFacilitatorBucket",
      "outputs": [
        {
          "internalType": "uint256",
          "name": "",
          "type": "uint256"
        },
        {
          "internalType": "uint256",
          "name": "",
          "type": "uint256"
        }
      ],
      "stateMutability": "view",
      "type": "function"
    },
    {
      "inputs": [],
      "name": "getFacilitatorsList",
      "outputs": [
        {
          "internalType": "address[]",
          "name": "",
          "type": "address[]"
        }
      ],
      "stateMutability": "view",
      "type": "function"
    },
    {
      "inputs": [
        {
          "internalType": "bytes32",
          "name": "role",
          "type": "bytes32"
        }
      ],
      "name": "getRoleAdmin",
      "outputs": [
        {
          "internalType": "bytes32",
          "name": "",
          "type": "bytes32"
        }
      ],
      "stateMutability": "view",
      "type": "function"
    },
    {
      "inputs": [
        {
          "internalType": "bytes32",
          "name": "role",
          "type": "bytes32"
        },
        {
          "internalType": "address",
          "name": "account",
          "type": "address"
        }
      ],
      "name": "grantRole",
      "outputs": [],
      "stateMutability": "nonpayable",
      "type": "function"
    },
    {
      "inputs": [
        {
          "internalType": "bytes32",
          "name": "role",
          "type": "bytes32"
        },
        {
          "internalType": "address",
          "name": "account",
          "type": "address"
        }
      ],
      "name": "hasRole",
      "outputs": [
        {
          "internalType": "bool",
          "name": "",
          "type": "bool"
        }
      ],
      "stateMutability": "view",
      "type": "function"
    },
    {
      "inputs": [
        {
          "internalType": "address",
          "name": "spender",
          "type": "address"
        },
        {
          "internalType": "uint256",
          "name": "addedValue",
          "type": "uint256"
        }
      ],
      "name": "increaseAllowance",
      "outputs": [
        {
          "internalType": "bool",
          "name": "",
          "type": "bool"
        }
      ],
      "stateMutability": "nonpayable",
      "type": "function"
    },
    {
      "inputs": [
        {
          "internalType": "address",
          "name": "account",
          "type": "address"
        },
        {
          "internalType": "uint256",
          "name": "amount",
          "type": "uint256"
        }
      ],
      "name": "mint",
      "outputs": [],
      "stateMutability": "nonpayable",
      "type": "function"
    },
    {
      "inputs": [],
      "name": "name",
      "outputs": [
        {
          "internalType": "string",
          "name": "",
          "type": "string"
        }
      ],
      "stateMutability": "view",
      "type": "function"
    },
    {
      "inputs": [
        {
          "internalType": "address",
          "name": "facilitatorAddress",
          "type": "address"
        }
      ],
      "name": "removeFacilitator",
      "outputs": [],
      "stateMutability": "nonpayable",
      "type": "function"
    },
    {
      "inputs": [
        {
          "internalType": "bytes32",
          "name": "role",
          "type": "bytes32"
        },
        {
          "internalType": "address",
          "name": "account",
          "type": "address"
        }
      ],
      "name": "renounceRole",
      "outputs": [],
      "stateMutability": "nonpayable",
      "type": "function"
    },
    {
      "inputs": [
        {
          "internalType": "bytes32",
          "name": "role",
          "type": "bytes32"
        },
        {
          "internalType": "address",
          "name": "account",
          "type": "address"
        }
      ],
      "name": "revokeRole",
      "outputs": [],
      "stateMutability": "nonpayable",
      "type": "function"
    },
    {
      "inputs": [
        {
          "internalType": "address",
          "name": "facilitator",
          "type": "address"
        },
        {
          "internalType": "uint128",
          "name": "newCapacity",
          "type": "uint128"
        }
      ],
      "name": "setFacilitatorBucketCapacity",
      "outputs": [],
      "stateMutability": "nonpayable",
      "type": "function"
    },
    {
      "inputs": [
        {
          "internalType": "bytes4",
          "name": "interfaceId",
          "type": "bytes4"
        }
      ],
      "name": "supportsInterface",
      "outputs": [
        {
          "internalType": "bool",
          "name": "",
          "type": "bool"
        }
      ],
      "stateMutability": "view",
      "type": "function"
    },
    {
      "inputs": [],
      "name": "symbol",
      "outputs": [
        {
          "internalType": "string",
          "name": "",
          "type": "string"
        }
      ],
      "stateMutability": "view",
      "type": "function"
    },
    {
      "inputs": [],
      "name": "totalSupply",
      "outputs": [
        {
          "internalType": "uint256",
          "name": "",
          "type": "uint256"
        }
      ],
      "stateMutability": "view",
      "type": "function"
    },
    {
      "inputs": [
        {
          "internalType": "address",
          "name": "to",
          "type": "address"
        },
        {
          "internalType": "uint256",
          "name": "amount",
          "type": "uint256"
        }
      ],
      "name": "transfer",
      "outputs": [
        {
          "internalType": "bool",
          "name": "",
          "type": "bool"
        }
      ],
      "stateMutability": "nonpayable",
      "type": "function"
    },
    {
      "inputs": [
        {
          "internalType": "address",
          "name": "from",
          "type": "address"
        },
        {
          "internalType": "address",
          "name": "to",
          "type": "address"
        },
        {
          "internalType": "uint256",
          "name": "amount",
          "type": "uint256"
        }
      ],
      "name": "transferFrom",
      "outputs": [
        {
          "internalType": "bool",
          "name": "",
          "type": "bool"
        }
      ],
      "stateMutability": "nonpayable",
      "type": "function"
    }
  ],
  "transactionHash": "0x025d68cd40663bef6e310dfa67690642eea21360db3b99c2913b840ec46c70ff",
  "args": [
    "0x6e7F1a7d1Bac9c7784c7C7Cdb098A727F62E95c7"
  ],
  "numDeployments": 1,
  "solcInputHash": "7708f6c448884aab87a7749622def414",
  "bytecode": "0x60806040523480156200001157600080fd5b5060405162002217380380620022178339810160408190526200003491620001a8565b6040518060400160405280600981526020016823b437902a37b5b2b760b91b8152506040518060400160405280600381526020016247484f60e81b81525081600390816200008391906200027f565b5060046200009282826200027f565b50620000a49150600090508262000103565b620000d07f5e20732f79076148980e17b6ce9f22756f85058fe2765420ed48a504bef5a8bc8262000103565b620000fc7fc7f115822aabac0cd6b9d21b08c0c63819451a58157aecad689d1b5674fad4088262000103565b506200034b565b60008281526005602090815260408083206001600160a01b038516845290915290205460ff16620001a45760008281526005602090815260408083206001600160a01b03851684529091529020805460ff19166001179055620001633390565b6001600160a01b0316816001600160a01b0316837f2f8788117e7eff1d82e926ec794901d17c78024a50270940304540a733656f0d60405160405180910390a45b5050565b600060208284031215620001bb57600080fd5b81516001600160a01b0381168114620001d357600080fd5b9392505050565b634e487b7160e01b600052604160045260246000fd5b600181811c908216806200020557607f821691505b6020821081036200022657634e487b7160e01b600052602260045260246000fd5b50919050565b601f8211156200027a57600081815260208120601f850160051c81016020861015620002555750805b601f850160051c820191505b81811015620002765782815560010162000261565b5050505b505050565b81516001600160401b038111156200029b576200029b620001da565b620002b381620002ac8454620001f0565b846200022c565b602080601f831160018114620002eb5760008415620002d25750858301515b600019600386901b1c1916600185901b17855562000276565b600085815260208120601f198616915b828110156200031c57888601518255948401946001909101908401620002fb565b50858210156200033b5787850151600019600388901b60f8161c191681555b5050505050600190811b01905550565b611ebc806200035b6000396000f3fe608060405234801561001057600080fd5b50600436106101c45760003560e01c8063550d9964116100f9578063a457c2d711610097578063af93df5711610071578063af93df571461041f578063d46ec0ed14610432578063d547741f14610452578063dd62ed3e1461046557600080fd5b8063a457c2d7146103a6578063a9059cbb146103b9578063aa02f94a146103cc57600080fd5b806391d14854116100d357806391d148541461037057806395d89b4114610383578063a11812ba1461038b578063a217fddf1461039e57600080fd5b8063550d99641461030d57806370a08231146103345780637fc24def1461035d57600080fd5b80632f2ff15d11610166578063395093511161014057806339509351146102ad57806340c10f19146102c057806342966c68146102d3578063433bef44146102e657600080fd5b80632f2ff15d14610276578063313ce5671461028b57806336568abe1461029a57600080fd5b806318160ddd116101a257806318160ddd146102195780631ec90f2e1461022b57806323b872dd14610240578063248a9ca31461025357600080fd5b806301ffc9a7146101c957806306fdde03146101f1578063095ea7b314610206575b600080fd5b6101dc6101d736600461190d565b610478565b60405190151581526020015b60405180910390f35b6101f96104af565b6040516101e89190611987565b6101dc6102143660046119b6565b610541565b6002545b6040519081526020016101e8565b610233610559565b6040516101e891906119e0565b6101dc61024e366004611a2d565b61056a565b61021d610261366004611a69565b60009081526005602052604090206001015490565b610289610284366004611a82565b61058e565b005b604051601281526020016101e8565b6102896102a8366004611a82565b6105b8565b6101dc6102bb3660046119b6565b61063b565b6102896102ce3660046119b6565b61065d565b6102896102e1366004611a69565b61079f565b61021d7f5e20732f79076148980e17b6ce9f22756f85058fe2765420ed48a504bef5a8bc81565b61021d7fc7f115822aabac0cd6b9d21b08c0c63819451a58157aecad689d1b5674fad40881565b61021d610342366004611aae565b6001600160a01b031660009081526020819052604090205490565b61028961036b366004611ae0565b61087a565b6101dc61037e366004611a82565b610a03565b6101f9610a2e565b610289610399366004611aae565b610a3d565b61021d600081565b6101dc6103b43660046119b6565b610bcc565b6101dc6103c73660046119b6565b610c47565b61040a6103da366004611aae565b6001600160a01b03166000908152600660205260409020546001600160801b0380821692600160801b9092041690565b604080519283526020830191909152016101e8565b61028961042d366004611b74565b610c55565b610445610440366004611aae565b610d66565b6040516101e89190611b9e565b610289610460366004611a82565b610e5f565b61021d610473366004611be2565b610e84565b60006001600160e01b03198216637965db0b60e01b14806104a957506301ffc9a760e01b6001600160e01b03198316145b92915050565b6060600380546104be90611c0c565b80601f01602080910402602001604051908101604052809291908181526020018280546104ea90611c0c565b80156105375780601f1061050c57610100808354040283529160200191610537565b820191906000526020600020905b81548152906001019060200180831161051a57829003601f168201915b5050505050905090565b60003361054f818585610eaf565b5060019392505050565b60606105656007610fd3565b905090565b600033610578858285610fe7565b610583858585611061565b506001949350505050565b6000828152600560205260409020600101546105a981611205565b6105b38383611212565b505050565b6001600160a01b038116331461062d5760405162461bcd60e51b815260206004820152602f60248201527f416363657373436f6e74726f6c3a2063616e206f6e6c792072656e6f756e636560448201526e103937b632b9903337b91039b2b63360891b60648201526084015b60405180910390fd5b6106378282611298565b5050565b60003361054f81858561064e8383610e84565b6106589190611c5c565b610eaf565b600081116106a35760405162461bcd60e51b81526020600482015260136024820152721253959053125117d352539517d05353d55395606a1b6044820152606401610624565b33600090815260066020526040812080549091600160801b9091046001600160801b0316906106d28483611c5c565b83549091506001600160801b031681111561073b5760405162461bcd60e51b8152602060048201526024808201527f464143494c495441544f525f4255434b45545f43415041434954595f455843456044820152631151115160e21b6064820152608401610624565b82546001600160801b03808316600160801b02911617835561075d85856112ff565b604080518381526020810183905233917facb6de9209e4f34974cb165eef5738f0cf0b4ea9819ef30d30f0f7d81272ab82910160405180910390a25050505050565b600081116107e55760405162461bcd60e51b81526020600482015260136024820152721253959053125117d095549397d05353d55395606a1b6044820152606401610624565b33600090815260066020526040812080549091600160801b9091046001600160801b0316906108148483611c6f565b83546001600160801b03808316600160801b029116178455905061083833856113be565b604080518381526020810183905233917facb6de9209e4f34974cb165eef5738f0cf0b4ea9819ef30d30f0f7d81272ab8291015b60405180910390a250505050565b7f5e20732f79076148980e17b6ce9f22756f85058fe2765420ed48a504bef5a8bc6108a481611205565b6001600160a01b03851660009081526006602052604090206001810180546108cb90611c0c565b15905061091a5760405162461bcd60e51b815260206004820152601a60248201527f464143494c495441544f525f414c52454144595f4558495354530000000000006044820152606401610624565b836109575760405162461bcd60e51b815260206004820152600d60248201526c1253959053125117d310509153609a1b6044820152606401610624565b60018101610966858783611ce6565b5080546001600160801b0319166001600160801b03841617815561098b6007876114f0565b50848460405160200161099f929190611da7565b60408051601f198184030181529082905280516020918201206001600160801b0386168352916001600160a01b038916917fdabd62626ada7b13e299389e94d768b294e5e24285ed2ffa1e5cd447c99c54ad910160405180910390a3505050505050565b60009182526005602090815260408084206001600160a01b0393909316845291905290205460ff1690565b6060600480546104be90611c0c565b7f5e20732f79076148980e17b6ce9f22756f85058fe2765420ed48a504bef5a8bc610a6781611205565b6001600160a01b03821660009081526006602052604081206001018054610a8d90611c0c565b905011610adc5760405162461bcd60e51b815260206004820152601a60248201527f464143494c495441544f525f444f45535f4e4f545f45584953540000000000006044820152606401610624565b6001600160a01b038216600090815260066020526040902054600160801b90046001600160801b031615610b5c5760405162461bcd60e51b815260206004820152602160248201527f464143494c495441544f525f4255434b45545f4c4556454c5f4e4f545f5a45526044820152604f60f81b6064820152608401610624565b6001600160a01b038216600090815260066020526040812081815590610b8560018301826118bf565b50610b939050600783611505565b506040516001600160a01b038316907fa8fe5b89f35f2ebd6f3f95a7ef215f4bd89179e10c101073ae76cffad14734cf90600090a25050565b60003381610bda8286610e84565b905083811015610c3a5760405162461bcd60e51b815260206004820152602560248201527f45524332303a2064656372656173656420616c6c6f77616e63652062656c6f77604482015264207a65726f60d81b6064820152608401610624565b6105838286868403610eaf565b60003361054f818585611061565b7fc7f115822aabac0cd6b9d21b08c0c63819451a58157aecad689d1b5674fad408610c7f81611205565b6001600160a01b03831660009081526006602052604081206001018054610ca590611c0c565b905011610cf45760405162461bcd60e51b815260206004820152601a60248201527f464143494c495441544f525f444f45535f4e4f545f45584953540000000000006044820152606401610624565b6001600160a01b03831660008181526006602090815260409182902080546001600160801b031981166001600160801b03888116918217909355845192909116808352928201529092917fc795c0a4927c3b6645e4e49a5a519af936b3c1c0e4c323a3f7251063f3f4bb0e910161086c565b6040805160608082018352600080835260208084018290528385018390526001600160a01b038616825260068152908490208451928301855280546001600160801b038082168552600160801b9091041691830191909152600181018054939492939192840191610dd690611c0c565b80601f0160208091040260200160405190810160405280929190818152602001828054610e0290611c0c565b8015610e4f5780601f10610e2457610100808354040283529160200191610e4f565b820191906000526020600020905b815481529060010190602001808311610e3257829003601f168201915b5050505050815250509050919050565b600082815260056020526040902060010154610e7a81611205565b6105b38383611298565b6001600160a01b03918216600090815260016020908152604080832093909416825291909152205490565b6001600160a01b038316610f115760405162461bcd60e51b8152602060048201526024808201527f45524332303a20617070726f76652066726f6d20746865207a65726f206164646044820152637265737360e01b6064820152608401610624565b6001600160a01b038216610f725760405162461bcd60e51b815260206004820152602260248201527f45524332303a20617070726f766520746f20746865207a65726f206164647265604482015261737360f01b6064820152608401610624565b6001600160a01b0383811660008181526001602090815260408083209487168084529482529182902085905590518481527f8c5be1e5ebec7d5bd14f71427d1e84f3dd0314c0f7b2291e5b200ac8c7c3b925910160405180910390a3505050565b60606000610fe08361151a565b9392505050565b6000610ff38484610e84565b9050600019811461105b578181101561104e5760405162461bcd60e51b815260206004820152601d60248201527f45524332303a20696e73756666696369656e7420616c6c6f77616e63650000006044820152606401610624565b61105b8484848403610eaf565b50505050565b6001600160a01b0383166110c55760405162461bcd60e51b815260206004820152602560248201527f45524332303a207472616e736665722066726f6d20746865207a65726f206164604482015264647265737360d81b6064820152608401610624565b6001600160a01b0382166111275760405162461bcd60e51b815260206004820152602360248201527f45524332303a207472616e7366657220746f20746865207a65726f206164647260448201526265737360e81b6064820152608401610624565b6001600160a01b0383166000908152602081905260409020548181101561119f5760405162461bcd60e51b815260206004820152602660248201527f45524332303a207472616e7366657220616d6f756e7420657863656564732062604482015265616c616e636560d01b6064820152608401610624565b6001600160a01b03848116600081815260208181526040808320878703905593871680835291849020805487019055925185815290927fddf252ad1be2c89b69c2b068fc378daa952ba7f163c4a11628f55a4df523b3ef910160405180910390a361105b565b61120f8133611576565b50565b61121c8282610a03565b6106375760008281526005602090815260408083206001600160a01b03851684529091529020805460ff191660011790556112543390565b6001600160a01b0316816001600160a01b0316837f2f8788117e7eff1d82e926ec794901d17c78024a50270940304540a733656f0d60405160405180910390a45050565b6112a28282610a03565b156106375760008281526005602090815260408083206001600160a01b0385168085529252808320805460ff1916905551339285917ff6391f5c32d9c69d2a47ea670b442974b53935d1edc7fd64eb21e047a839171b9190a45050565b6001600160a01b0382166113555760405162461bcd60e51b815260206004820152601f60248201527f45524332303a206d696e7420746f20746865207a65726f2061646472657373006044820152606401610624565b80600260008282546113679190611c5c565b90915550506001600160a01b038216600081815260208181526040808320805486019055518481527fddf252ad1be2c89b69c2b068fc378daa952ba7f163c4a11628f55a4df523b3ef910160405180910390a35050565b6001600160a01b03821661141e5760405162461bcd60e51b815260206004820152602160248201527f45524332303a206275726e2066726f6d20746865207a65726f206164647265736044820152607360f81b6064820152608401610624565b6001600160a01b038216600090815260208190526040902054818110156114925760405162461bcd60e51b815260206004820152602260248201527f45524332303a206275726e20616d6f756e7420657863656564732062616c616e604482015261636560f01b6064820152608401610624565b6001600160a01b0383166000818152602081815260408083208686039055600280548790039055518581529192917fddf252ad1be2c89b69c2b068fc378daa952ba7f163c4a11628f55a4df523b3ef910160405180910390a3505050565b6000610fe0836001600160a01b0384166115cf565b6000610fe0836001600160a01b03841661161e565b60608160000180548060200260200160405190810160405280929190818152602001828054801561156a57602002820191906000526020600020905b815481526020019060010190808311611556575b50505050509050919050565b6115808282610a03565b6106375761158d81611711565b611598836020611723565b6040516020016115a9929190611db7565b60408051601f198184030181529082905262461bcd60e51b825261062491600401611987565b6000818152600183016020526040812054611616575081546001818101845560008481526020808220909301849055845484825282860190935260409020919091556104a9565b5060006104a9565b60008181526001830160205260408120548015611707576000611642600183611c6f565b855490915060009061165690600190611c6f565b90508181146116bb57600086600001828154811061167657611676611e2c565b906000526020600020015490508087600001848154811061169957611699611e2c565b6000918252602080832090910192909255918252600188019052604090208390555b85548690806116cc576116cc611e42565b6001900381819060005260206000200160009055905585600101600086815260200190815260200160002060009055600193505050506104a9565b60009150506104a9565b60606104a96001600160a01b03831660145b60606000611732836002611e58565b61173d906002611c5c565b67ffffffffffffffff81111561175557611755611c82565b6040519080825280601f01601f19166020018201604052801561177f576020820181803683370190505b509050600360fc1b8160008151811061179a5761179a611e2c565b60200101906001600160f81b031916908160001a905350600f60fb1b816001815181106117c9576117c9611e2c565b60200101906001600160f81b031916908160001a90535060006117ed846002611e58565b6117f8906001611c5c565b90505b6001811115611870576f181899199a1a9b1b9c1cb0b131b232b360811b85600f166010811061182c5761182c611e2c565b1a60f81b82828151811061184257611842611e2c565b60200101906001600160f81b031916908160001a90535060049490941c9361186981611e6f565b90506117fb565b508315610fe05760405162461bcd60e51b815260206004820181905260248201527f537472696e67733a20686578206c656e67746820696e73756666696369656e746044820152606401610624565b5080546118cb90611c0c565b6000825580601f106118db575050565b601f01602090049060005260206000209081019061120f91905b8082111561190957600081556001016118f5565b5090565b60006020828403121561191f57600080fd5b81356001600160e01b031981168114610fe057600080fd5b60005b8381101561195257818101518382015260200161193a565b50506000910152565b60008151808452611973816020860160208601611937565b601f01601f19169290920160200192915050565b602081526000610fe0602083018461195b565b80356001600160a01b03811681146119b157600080fd5b919050565b600080604083850312156119c957600080fd5b6119d28361199a565b946020939093013593505050565b6020808252825182820181905260009190848201906040850190845b81811015611a215783516001600160a01b0316835292840192918401916001016119fc565b50909695505050505050565b600080600060608486031215611a4257600080fd5b611a4b8461199a565b9250611a596020850161199a565b9150604084013590509250925092565b600060208284031215611a7b57600080fd5b5035919050565b60008060408385031215611a9557600080fd5b82359150611aa56020840161199a565b90509250929050565b600060208284031215611ac057600080fd5b610fe08261199a565b80356001600160801b03811681146119b157600080fd5b60008060008060608587031215611af657600080fd5b611aff8561199a565b9350602085013567ffffffffffffffff80821115611b1c57600080fd5b818701915087601f830112611b3057600080fd5b813581811115611b3f57600080fd5b886020828501011115611b5157600080fd5b602083019550809450505050611b6960408601611ac9565b905092959194509250565b60008060408385031215611b8757600080fd5b611b908361199a565b9150611aa560208401611ac9565b6020815260006001600160801b03808451166020840152806020850151166040840152506040830151606080840152611bda608084018261195b565b949350505050565b60008060408385031215611bf557600080fd5b611bfe8361199a565b9150611aa56020840161199a565b600181811c90821680611c2057607f821691505b602082108103611c4057634e487b7160e01b600052602260045260246000fd5b50919050565b634e487b7160e01b600052601160045260246000fd5b808201808211156104a9576104a9611c46565b818103818111156104a9576104a9611c46565b634e487b7160e01b600052604160045260246000fd5b601f8211156105b357600081815260208120601f850160051c81016020861015611cbf5750805b601f850160051c820191505b81811015611cde57828155600101611ccb565b505050505050565b67ffffffffffffffff831115611cfe57611cfe611c82565b611d1283611d0c8354611c0c565b83611c98565b6000601f841160018114611d465760008515611d2e5750838201355b600019600387901b1c1916600186901b178355611da0565b600083815260209020601f19861690835b82811015611d775786850135825560209485019460019092019101611d57565b5086821015611d945760001960f88860031b161c19848701351681555b505060018560011b0183555b5050505050565b8183823760009101908152919050565b7f416363657373436f6e74726f6c3a206163636f756e7420000000000000000000815260008351611def816017850160208801611937565b7001034b99036b4b9b9b4b733903937b6329607d1b6017918401918201528351611e20816028840160208801611937565b01602801949350505050565b634e487b7160e01b600052603260045260246000fd5b634e487b7160e01b600052603160045260246000fd5b80820281158282048414176104a9576104a9611c46565b600081611e7e57611e7e611c46565b50600019019056fea264697066735822122034f41503428201e813c52a386cb4b884937ee2a25f4414e12f0d5c1102e00d3b64736f6c63430008140033",
  "devdoc": {
    "author": "Aave",
    "events": {
      "Approval(address,address,uint256)": {
        "details": "Emitted when the allowance of a `spender` for an `owner` is set by a call to {approve}. `value` is the new allowance."
      },
      "FacilitatorAdded(address,bytes32,uint256)": {
        "details": "Emitted when a new facilitator is added",
        "params": {
          "bucketCapacity": "The initial capacity of the facilitator's bucket",
          "facilitatorAddress": "The address of the new facilitator",
          "label": "A hashed human readable identifier for the facilitator"
        }
      },
      "FacilitatorBucketCapacityUpdated(address,uint256,uint256)": {
        "details": "Emitted when the bucket capacity of a facilitator is updated",
        "params": {
          "facilitatorAddress": "The address of the facilitator whose bucket capacity is being changed",
          "newCapacity": "The new capacity of the bucket",
          "oldCapacity": "The old capacity of the bucket"
        }
      },
      "FacilitatorBucketLevelUpdated(address,uint256,uint256)": {
        "details": "Emitted when the bucket level changed",
        "params": {
          "facilitatorAddress": "The address of the facilitator whose bucket level is being changed",
          "newLevel": "The new level of the bucket",
          "oldLevel": "The old level of the bucket"
        }
      },
      "FacilitatorRemoved(address)": {
        "details": "Emitted when a facilitator is removed",
        "params": {
          "facilitatorAddress": "The address of the removed facilitator"
        }
      },
      "RoleAdminChanged(bytes32,bytes32,bytes32)": {
        "details": "Emitted when `newAdminRole` is set as ``role``'s admin role, replacing `previousAdminRole` `DEFAULT_ADMIN_ROLE` is the starting admin for all roles, despite {RoleAdminChanged} not being emitted signaling this. _Available since v3.1._"
      },
      "RoleGranted(bytes32,address,address)": {
        "details": "Emitted when `account` is granted `role`. `sender` is the account that originated the contract call, an admin role bearer except when using {AccessControl-_setupRole}."
      },
      "RoleRevoked(bytes32,address,address)": {
        "details": "Emitted when `account` is revoked `role`. `sender` is the account that originated the contract call:   - if using `revokeRole`, it is the admin role bearer   - if using `renounceRole`, it is the role bearer (i.e. `account`)"
      },
      "Transfer(address,address,uint256)": {
        "details": "Emitted when `value` tokens are moved from one account (`from`) to another (`to`). Note that `value` may be zero."
      }
    },
    "kind": "dev",
    "methods": {
      "addFacilitator(address,string,uint128)": {
        "details": "Only accounts with `FACILITATOR_MANAGER_ROLE` role can call this function",
        "params": {
          "bucketCapacity": "The upward limit of GHO can be minted by the facilitator",
          "facilitatorAddress": "The address of the facilitator to add",
          "facilitatorLabel": "A human readable identifier for the facilitator"
        }
      },
      "allowance(address,address)": {
        "details": "See {IERC20-allowance}."
      },
      "approve(address,uint256)": {
        "details": "See {IERC20-approve}. NOTE: If `amount` is the maximum `uint256`, the allowance is not updated on `transferFrom`. This is semantically equivalent to an infinite approval. Requirements: - `spender` cannot be the zero address."
      },
      "balanceOf(address)": {
        "details": "See {IERC20-balanceOf}."
      },
      "burn(uint256)": {
        "details": "Only active facilitators (bucket level > 0) can burn.The bucket level is decreased upon burning.",
        "params": {
          "amount": "The amount to burn"
        }
      },
      "constructor": {
        "details": "Constructor",
        "params": {
          "admin": "This is the initial holder of the default admin role"
        }
      },
      "decimals()": {
        "details": "Returns the number of decimals used to get its user representation. For example, if `decimals` equals `2`, a balance of `505` tokens should be displayed to a user as `5.05` (`505 / 10 ** 2`). Tokens usually opt for a value of 18, imitating the relationship between Ether and Wei. This is the default value returned by this function, unless it's overridden. NOTE: This information is only used for _display_ purposes: it in no way affects any of the arithmetic of the contract, including {IERC20-balanceOf} and {IERC20-transfer}."
      },
      "decreaseAllowance(address,uint256)": {
        "details": "Atomically decreases the allowance granted to `spender` by the caller. This is an alternative to {approve} that can be used as a mitigation for problems described in {IERC20-approve}. Emits an {Approval} event indicating the updated allowance. Requirements: - `spender` cannot be the zero address. - `spender` must have allowance for the caller of at least `subtractedValue`."
      },
      "getFacilitator(address)": {
        "params": {
          "facilitator": "The address of the facilitator"
        },
        "returns": {
          "_0": "The facilitator configuration"
        }
      },
      "getFacilitatorBucket(address)": {
        "params": {
          "facilitator": "The address of the facilitator"
        },
        "returns": {
          "_0": "The capacity of the facilitator's bucket",
          "_1": "The level of the facilitator's bucket"
        }
      },
      "getFacilitatorsList()": {
        "returns": {
          "_0": "The list of the facilitators addresses"
        }
      },
      "getRoleAdmin(bytes32)": {
        "details": "Returns the admin role that controls `role`. See {grantRole} and {revokeRole}. To change a role's admin, use {_setRoleAdmin}."
      },
      "grantRole(bytes32,address)": {
        "details": "Grants `role` to `account`. If `account` had not been already granted `role`, emits a {RoleGranted} event. Requirements: - the caller must have ``role``'s admin role. May emit a {RoleGranted} event."
      },
      "hasRole(bytes32,address)": {
        "details": "Returns `true` if `account` has been granted `role`."
      },
      "increaseAllowance(address,uint256)": {
        "details": "Atomically increases the allowance granted to `spender` by the caller. This is an alternative to {approve} that can be used as a mitigation for problems described in {IERC20-approve}. Emits an {Approval} event indicating the updated allowance. Requirements: - `spender` cannot be the zero address."
      },
      "mint(address,uint256)": {
        "details": "Only facilitators with enough bucket capacity available can mint.The bucket level is increased upon minting.",
        "params": {
          "account": "The address receiving the GHO tokens",
          "amount": "The amount to mint"
        }
      },
      "name()": {
        "details": "Returns the name of the token."
      },
      "removeFacilitator(address)": {
        "details": "Only accounts with `FACILITATOR_MANAGER_ROLE` role can call this function",
        "params": {
          "facilitatorAddress": "The address of the facilitator to remove"
        }
      },
      "renounceRole(bytes32,address)": {
        "details": "Revokes `role` from the calling account. Roles are often managed via {grantRole} and {revokeRole}: this function's purpose is to provide a mechanism for accounts to lose their privileges if they are compromised (such as when a trusted device is misplaced). If the calling account had been revoked `role`, emits a {RoleRevoked} event. Requirements: - the caller must be `account`. May emit a {RoleRevoked} event."
      },
      "revokeRole(bytes32,address)": {
        "details": "Revokes `role` from `account`. If `account` had been granted `role`, emits a {RoleRevoked} event. Requirements: - the caller must have ``role``'s admin role. May emit a {RoleRevoked} event."
      },
      "setFacilitatorBucketCapacity(address,uint128)": {
        "details": "Only accounts with `BUCKET_MANAGER_ROLE` role can call this function",
        "params": {
          "facilitator": "The address of the facilitator",
          "newCapacity": "The new capacity of the bucket"
        }
      },
      "supportsInterface(bytes4)": {
        "details": "See {IERC165-supportsInterface}."
      },
      "symbol()": {
        "details": "Returns the symbol of the token, usually a shorter version of the name."
      },
      "totalSupply()": {
        "details": "See {IERC20-totalSupply}."
      },
      "transfer(address,uint256)": {
        "details": "See {IERC20-transfer}. Requirements: - `to` cannot be the zero address. - the caller must have a balance of at least `amount`."
      },
      "transferFrom(address,address,uint256)": {
        "details": "See {IERC20-transferFrom}. Emits an {Approval} event indicating the updated allowance. This is not required by the EIP. See the note at the beginning of {ERC20}. NOTE: Does not update the allowance if the current allowance is the maximum `uint256`. Requirements: - `from` and `to` cannot be the zero address. - `from` must have a balance of at least `amount`. - the caller must have allowance for ``from``'s tokens of at least `amount`."
      }
    },
    "stateVariables": {
      "BUCKET_MANAGER_ROLE": {
        "return": "The bytes32 id hash of the BucketManager role",
        "returns": {
          "_0": "The bytes32 id hash of the BucketManager role"
        }
      },
      "FACILITATOR_MANAGER_ROLE": {
        "return": "The bytes32 id hash of the FacilitatorManager role",
        "returns": {
          "_0": "The bytes32 id hash of the FacilitatorManager role"
        }
      }
    },
    "title": "GHO Token",
    "version": 1
  },
  "userdoc": {
    "kind": "user",
    "methods": {
      "BUCKET_MANAGER_ROLE()": {
        "notice": "Returns the identifier of the Bucket Manager Role"
      },
      "FACILITATOR_MANAGER_ROLE()": {
        "notice": "Returns the identifier of the Facilitator Manager Role"
      },
      "addFacilitator(address,string,uint128)": {
        "notice": "Add the facilitator passed with the parameters to the facilitators list."
      },
      "burn(uint256)": {
        "notice": "Burns the requested amount of tokens from the account address."
      },
      "getFacilitator(address)": {
        "notice": "Returns the facilitator data"
      },
      "getFacilitatorBucket(address)": {
        "notice": "Returns the bucket configuration of the facilitator"
      },
      "getFacilitatorsList()": {
        "notice": "Returns the list of the addresses of the active facilitator"
      },
      "mint(address,uint256)": {
        "notice": "Mints the requested amount of tokens to the account address."
      },
      "removeFacilitator(address)": {
        "notice": "Remove the facilitator from the facilitators list."
      },
      "setFacilitatorBucketCapacity(address,uint128)": {
        "notice": "Set the bucket capacity of the facilitator."
      }
    },
    "version": 1
  },
  "storageLayout": {
    "storage": [
      {
        "astId": 1150,
        "contract": "contracts/GhoToken.sol:GhoToken",
        "label": "_balances",
        "offset": 0,
        "slot": "0",
        "type": "t_mapping(t_address,t_uint256)"
      },
      {
        "astId": 1156,
        "contract": "contracts/GhoToken.sol:GhoToken",
        "label": "_allowances",
        "offset": 0,
        "slot": "1",
        "type": "t_mapping(t_address,t_mapping(t_address,t_uint256))"
      },
      {
        "astId": 1158,
        "contract": "contracts/GhoToken.sol:GhoToken",
        "label": "_totalSupply",
        "offset": 0,
        "slot": "2",
        "type": "t_uint256"
      },
      {
        "astId": 1160,
        "contract": "contracts/GhoToken.sol:GhoToken",
        "label": "_name",
        "offset": 0,
        "slot": "3",
        "type": "t_string_storage"
      },
      {
        "astId": 1162,
        "contract": "contracts/GhoToken.sol:GhoToken",
        "label": "_symbol",
        "offset": 0,
        "slot": "4",
        "type": "t_string_storage"
      },
      {
        "astId": 632,
        "contract": "contracts/GhoToken.sol:GhoToken",
        "label": "_roles",
        "offset": 0,
        "slot": "5",
        "type": "t_mapping(t_bytes32,t_struct(RoleData)627_storage)"
      },
      {
        "astId": 4950,
        "contract": "contracts/GhoToken.sol:GhoToken",
        "label": "_facilitators",
        "offset": 0,
        "slot": "6",
        "type": "t_mapping(t_address,t_struct(Facilitator)5413_storage)"
      },
      {
        "astId": 4953,
        "contract": "contracts/GhoToken.sol:GhoToken",
        "label": "_facilitatorsList",
        "offset": 0,
        "slot": "7",
        "type": "t_struct(AddressSet)4638_storage"
      }
    ],
    "types": {
      "t_address": {
        "encoding": "inplace",
        "label": "address",
        "numberOfBytes": "20"
      },
      "t_array(t_bytes32)dyn_storage": {
        "base": "t_bytes32",
        "encoding": "dynamic_array",
        "label": "bytes32[]",
        "numberOfBytes": "32"
      },
      "t_bool": {
        "encoding": "inplace",
        "label": "bool",
        "numberOfBytes": "1"
      },
      "t_bytes32": {
        "encoding": "inplace",
        "label": "bytes32",
        "numberOfBytes": "32"
      },
      "t_mapping(t_address,t_bool)": {
        "encoding": "mapping",
        "key": "t_address",
        "label": "mapping(address => bool)",
        "numberOfBytes": "32",
        "value": "t_bool"
      },
      "t_mapping(t_address,t_mapping(t_address,t_uint256))": {
        "encoding": "mapping",
        "key": "t_address",
        "label": "mapping(address => mapping(address => uint256))",
        "numberOfBytes": "32",
        "value": "t_mapping(t_address,t_uint256)"
      },
      "t_mapping(t_address,t_struct(Facilitator)5413_storage)": {
        "encoding": "mapping",
        "key": "t_address",
        "label": "mapping(address => struct IGhoToken.Facilitator)",
        "numberOfBytes": "32",
        "value": "t_struct(Facilitator)5413_storage"
      },
      "t_mapping(t_address,t_uint256)": {
        "encoding": "mapping",
        "key": "t_address",
        "label": "mapping(address => uint256)",
        "numberOfBytes": "32",
        "value": "t_uint256"
      },
      "t_mapping(t_bytes32,t_struct(RoleData)627_storage)": {
        "encoding": "mapping",
        "key": "t_bytes32",
        "label": "mapping(bytes32 => struct AccessControl.RoleData)",
        "numberOfBytes": "32",
        "value": "t_struct(RoleData)627_storage"
      },
      "t_mapping(t_bytes32,t_uint256)": {
        "encoding": "mapping",
        "key": "t_bytes32",
        "label": "mapping(bytes32 => uint256)",
        "numberOfBytes": "32",
        "value": "t_uint256"
      },
      "t_string_storage": {
        "encoding": "bytes",
        "label": "string",
        "numberOfBytes": "32"
      },
      "t_struct(AddressSet)4638_storage": {
        "encoding": "inplace",
        "label": "struct EnumerableSet.AddressSet",
        "members": [
          {
            "astId": 4637,
            "contract": "contracts/GhoToken.sol:GhoToken",
            "label": "_inner",
            "offset": 0,
            "slot": "0",
            "type": "t_struct(Set)4323_storage"
          }
        ],
        "numberOfBytes": "64"
      },
      "t_struct(Facilitator)5413_storage": {
        "encoding": "inplace",
        "label": "struct IGhoToken.Facilitator",
        "members": [
          {
            "astId": 5408,
            "contract": "contracts/GhoToken.sol:GhoToken",
            "label": "bucketCapacity",
            "offset": 0,
            "slot": "0",
            "type": "t_uint128"
          },
          {
            "astId": 5410,
            "contract": "contracts/GhoToken.sol:GhoToken",
            "label": "bucketLevel",
            "offset": 16,
            "slot": "0",
            "type": "t_uint128"
          },
          {
            "astId": 5412,
            "contract": "contracts/GhoToken.sol:GhoToken",
            "label": "label",
            "offset": 0,
            "slot": "1",
            "type": "t_string_storage"
          }
        ],
        "numberOfBytes": "64"
      },
      "t_struct(RoleData)627_storage": {
        "encoding": "inplace",
        "label": "struct AccessControl.RoleData",
        "members": [
          {
            "astId": 624,
            "contract": "contracts/GhoToken.sol:GhoToken",
            "label": "members",
            "offset": 0,
            "slot": "0",
            "type": "t_mapping(t_address,t_bool)"
          },
          {
            "astId": 626,
            "contract": "contracts/GhoToken.sol:GhoToken",
            "label": "adminRole",
            "offset": 0,
            "slot": "1",
            "type": "t_bytes32"
          }
        ],
        "numberOfBytes": "64"
      },
      "t_struct(Set)4323_storage": {
        "encoding": "inplace",
        "label": "struct EnumerableSet.Set",
        "members": [
          {
            "astId": 4318,
            "contract": "contracts/GhoToken.sol:GhoToken",
            "label": "_values",
            "offset": 0,
            "slot": "0",
            "type": "t_array(t_bytes32)dyn_storage"
          },
          {
            "astId": 4322,
            "contract": "contracts/GhoToken.sol:GhoToken",
            "label": "_indexes",
            "offset": 0,
            "slot": "1",
            "type": "t_mapping(t_bytes32,t_uint256)"
          }
        ],
        "numberOfBytes": "64"
      },
      "t_uint128": {
        "encoding": "inplace",
        "label": "uint128",
        "numberOfBytes": "16"
      },
      "t_uint256": {
        "encoding": "inplace",
        "label": "uint256",
        "numberOfBytes": "32"
      }
    }
  }
}