{
  "address": "0x441fe0043818a48fb60399f705D987208F87eB05",
  "abi": [
    {
      "inputs": [
        {
          "internalType": "address",
          "name": "router",
          "type": "address"
        },
        {
          "internalType": "address",
          "name": "_ghoToken",
          "type": "address"
        },
        {
          "internalType": "address",
          "name": "_link",
          "type": "address"
        },
        {
          "internalType": "address",
          "name": "_senderVault",
          "type": "address"
        }
      ],
      "stateMutability": "nonpayable",
      "type": "constructor"
    },
    {
      "inputs": [
        {
          "internalType": "address",
          "name": "router",
          "type": "address"
        }
      ],
      "name": "InvalidRouter",
      "type": "error"
    },
    {
      "inputs": [
        {
          "internalType": "uint256",
          "name": "currentBalance",
          "type": "uint256"
        },
        {
          "internalType": "uint256",
          "name": "calculatedFees",
          "type": "uint256"
        }
      ],
      "name": "NotEnoughBalance",
      "type": "error"
    },
    {
      "anonymous": false,
      "inputs": [
        {
          "indexed": true,
          "internalType": "bytes32",
          "name": "messageId",
          "type": "bytes32"
        },
        {
          "indexed": true,
          "internalType": "uint64",
          "name": "sourceChainSelector",
          "type": "uint64"
        },
        {
          "indexed": false,
          "internalType": "address",
          "name": "sender",
          "type": "address"
        },
        {
          "indexed": false,
          "internalType": "string",
          "name": "text",
          "type": "string"
        }
      ],
      "name": "MessageReceived",
      "type": "event"
    },
    {
      "anonymous": false,
      "inputs": [
        {
          "indexed": true,
          "internalType": "bytes32",
          "name": "messageId",
          "type": "bytes32"
        },
        {
          "indexed": true,
          "internalType": "uint64",
          "name": "destinationChainSelector",
          "type": "uint64"
        },
        {
          "indexed": false,
          "internalType": "address",
          "name": "receiver",
          "type": "address"
        },
        {
          "indexed": false,
          "internalType": "uint256",
          "name": "id",
          "type": "uint256"
        },
        {
          "indexed": false,
          "internalType": "address",
          "name": "feeToken",
          "type": "address"
        },
        {
          "indexed": false,
          "internalType": "uint256",
          "name": "fees",
          "type": "uint256"
        }
      ],
      "name": "MessageSent",
      "type": "event"
    },
    {
      "anonymous": false,
      "inputs": [
        {
          "indexed": true,
          "internalType": "address",
          "name": "from",
          "type": "address"
        },
        {
          "indexed": true,
          "internalType": "address",
          "name": "to",
          "type": "address"
        }
      ],
      "name": "OwnershipTransferRequested",
      "type": "event"
    },
    {
      "anonymous": false,
      "inputs": [
        {
          "indexed": true,
          "internalType": "address",
          "name": "from",
          "type": "address"
        },
        {
          "indexed": true,
          "internalType": "address",
          "name": "to",
          "type": "address"
        }
      ],
      "name": "OwnershipTransferred",
      "type": "event"
    },
    {
      "inputs": [],
      "name": "acceptOwnership",
      "outputs": [],
      "stateMutability": "nonpayable",
      "type": "function"
    },
    {
      "inputs": [
        {
          "internalType": "uint256",
          "name": "",
          "type": "uint256"
        }
      ],
      "name": "activeBuckets",
      "outputs": [
        {
          "internalType": "uint256",
          "name": "",
          "type": "uint256"
        }
      ],
      "stateMutability": "view",
      "type": "function"
    },
    {
      "inputs": [
        {
          "internalType": "uint256",
          "name": "",
          "type": "uint256"
        }
      ],
      "name": "allbuckets",
      "outputs": [
        {
          "internalType": "uint256",
          "name": "collateral",
          "type": "uint256"
        },
        {
          "internalType": "uint256",
          "name": "amount",
          "type": "uint256"
        },
        {
          "internalType": "uint256",
          "name": "CollateralWorth",
          "type": "uint256"
        },
        {
          "internalType": "address",
          "name": "user",
          "type": "address"
        },
        {
          "internalType": "bool",
          "name": "drained",
          "type": "bool"
        }
      ],
      "stateMutability": "view",
      "type": "function"
    },
    {
      "inputs": [
        {
          "components": [
            {
              "internalType": "bytes32",
              "name": "messageId",
              "type": "bytes32"
            },
            {
              "internalType": "uint64",
              "name": "sourceChainSelector",
              "type": "uint64"
            },
            {
              "internalType": "bytes",
              "name": "sender",
              "type": "bytes"
            },
            {
              "internalType": "bytes",
              "name": "data",
              "type": "bytes"
            },
            {
              "components": [
                {
                  "internalType": "address",
                  "name": "token",
                  "type": "address"
                },
                {
                  "internalType": "uint256",
                  "name": "amount",
                  "type": "uint256"
                }
              ],
              "internalType": "struct Client.EVMTokenAmount[]",
              "name": "destTokenAmounts",
              "type": "tuple[]"
            }
          ],
          "internalType": "struct Client.Any2EVMMessage",
          "name": "message",
          "type": "tuple"
        }
      ],
      "name": "ccipReceive",
      "outputs": [],
      "stateMutability": "nonpayable",
      "type": "function"
    },
    {
      "inputs": [],
      "name": "destinationChainSelector",
      "outputs": [
        {
          "internalType": "uint64",
          "name": "",
          "type": "uint64"
        }
      ],
      "stateMutability": "view",
      "type": "function"
    },
    {
      "inputs": [
        {
          "internalType": "uint256",
          "name": "id",
          "type": "uint256"
        }
      ],
      "name": "drain",
      "outputs": [],
      "stateMutability": "nonpayable",
      "type": "function"
    },
    {
      "inputs": [],
      "name": "getChainlinkDataFeedLatestAnswer",
      "outputs": [
        {
          "internalType": "int256",
          "name": "",
          "type": "int256"
        }
      ],
      "stateMutability": "view",
      "type": "function"
    },
    {
      "inputs": [],
      "name": "getChainlinkDecimal",
      "outputs": [
        {
          "internalType": "uint8",
          "name": "",
          "type": "uint8"
        }
      ],
      "stateMutability": "view",
      "type": "function"
    },
    {
      "inputs": [],
      "name": "getLastReceivedMessageDetails",
      "outputs": [
        {
          "internalType": "bytes32",
          "name": "messageId",
          "type": "bytes32"
        },
        {
          "internalType": "string",
          "name": "text",
          "type": "string"
        }
      ],
      "stateMutability": "view",
      "type": "function"
    },
    {
      "inputs": [],
      "name": "getRouter",
      "outputs": [
        {
          "internalType": "address",
          "name": "",
          "type": "address"
        }
      ],
      "stateMutability": "view",
      "type": "function"
    },
    {
      "inputs": [],
      "name": "ghoErc",
      "outputs": [
        {
          "internalType": "contract IERC20",
          "name": "",
          "type": "address"
        }
      ],
      "stateMutability": "view",
      "type": "function"
    },
    {
      "inputs": [],
      "name": "ghoToken",
      "outputs": [
        {
          "internalType": "contract IGhoToken",
          "name": "",
          "type": "address"
        }
      ],
      "stateMutability": "view",
      "type": "function"
    },
    {
      "inputs": [],
      "name": "owner",
      "outputs": [
        {
          "internalType": "address",
          "name": "",
          "type": "address"
        }
      ],
      "stateMutability": "view",
      "type": "function"
    },
    {
      "inputs": [
        {
          "internalType": "address",
          "name": "receiver",
          "type": "address"
        },
        {
          "internalType": "uint256",
          "name": "id",
          "type": "uint256"
        }
      ],
      "name": "sendMessage",
      "outputs": [
        {
          "internalType": "bytes32",
          "name": "messageId",
          "type": "bytes32"
        }
      ],
      "stateMutability": "nonpayable",
      "type": "function"
    },
    {
      "inputs": [],
      "name": "senderVault",
      "outputs": [
        {
          "internalType": "address",
          "name": "",
          "type": "address"
        }
      ],
      "stateMutability": "view",
      "type": "function"
    },
    {
      "inputs": [
        {
          "internalType": "bytes4",
          "name": "interfaceId",
          "type": "bytes4"
        }
      ],
      "name": "supportsInterface",
      "outputs": [
        {
          "internalType": "bool",
          "name": "",
          "type": "bool"
        }
      ],
      "stateMutability": "pure",
      "type": "function"
    },
    {
      "inputs": [
        {
          "internalType": "address",
          "name": "to",
          "type": "address"
        }
      ],
      "name": "transferOwnership",
      "outputs": [],
      "stateMutability": "nonpayable",
      "type": "function"
    },
    {
      "inputs": [
        {
          "internalType": "address",
          "name": "",
          "type": "address"
        },
        {
          "internalType": "uint256",
          "name": "",
          "type": "uint256"
        }
      ],
      "name": "userBuckets",
      "outputs": [
        {
          "internalType": "uint256",
          "name": "",
          "type": "uint256"
        }
      ],
      "stateMutability": "view",
      "type": "function"
    }
  ],
  "transactionHash": "0x6c535f4c93de98722d26b9f614a8d4573038d7bc95aeb0b86d3c26dab6dc2f55",
  "args": [
    "0x1035cabc275068e0f4b745a29cedf38e13af41b1",
    "0x163Ae05b5A5Cb18896D260B1F1B754764e190764",
    "0x326C977E6efc84E512bB9C30f76E30c160eD06FB",
    "0xaB431275Ac8796E456150eFfE629967a7ADEe31D"
  ],
  "numDeployments": 1,
  "solcInputHash": "ed6ef39c0efe14e09b68d4b8df9dc181",
  "bytecode": "0x60a060405260088054600160a01b600160e01b03191667de41ba4fc9d91ad960a01b1790553480156200003157600080fd5b5060405162001a5038038062001a50833981016040819052620000549162000262565b33806000866001600160a01b03811662000089576040516335fdcccd60e21b8152600060048201526024015b60405180910390fd5b6001600160a01b039081166080528216620000e75760405162461bcd60e51b815260206004820152601860248201527f43616e6e6f7420736574206f776e657220746f207a65726f0000000000000000604482015260640162000080565b600080546001600160a01b0319166001600160a01b03848116919091179091558116156200011a576200011a816200019a565b5050600480546001600160a01b03199081166001600160a01b0396871690811790925560058054821690921790915560088054727a22900a3b98143368bd5906f8e17e9867581b908316179055600680548216968616969096179095555060078054851692841692909217909155600980549093169116179055620002bf565b336001600160a01b03821603620001f45760405162461bcd60e51b815260206004820152601760248201527f43616e6e6f74207472616e7366657220746f2073656c66000000000000000000604482015260640162000080565b600180546001600160a01b0319166001600160a01b0383811691821790925560008054604051929316917fed8889f560326eb138920d842192f0eb3dd22b4f139c87a2c57538e05bae12789190a350565b80516001600160a01b03811681146200025d57600080fd5b919050565b600080600080608085870312156200027957600080fd5b620002848562000245565b9350620002946020860162000245565b9250620002a46040860162000245565b9150620002b46060860162000245565b905092959194509250565b60805161176e620002e2600039600081816102c4015261058f015261176e6000f3fe608060405234801561001057600080fd5b50600436106101165760003560e01c806379ba5097116100a2578063bea4dfb511610071578063bea4dfb5146102e8578063c2919040146102f0578063f2fde38b14610303578063f6b19c7414610316578063f9d53aeb1461032957600080fd5b806379ba50971461029457806385572ffb1461029e5780638da5cb5b146102b1578063b0f479a1146102c257600080fd5b806331db1ffc116100e957806331db1ffc1461018d57806351b1873d146101bf57806353c47df9146101d957806357ee1fe6146102565780635996db911461028157600080fd5b806301ffc9a71461011b57806311e66faa146101435780631a9c7ebb14610164578063263596a514610177575b600080fd5b61012e610129366004610ff1565b61033c565b60405190151581526020015b60405180910390f35b610156610151366004611022565b610373565b60405190815260200161013a565b610156610172366004611050565b610394565b61017f6103c5565b60405161013a9291906110cc565b6008546101a790600160a01b90046001600160401b031681565b6040516001600160401b03909116815260200161013a565b6101c7610462565b60405160ff909116815260200161013a565b6102236101e7366004611022565b600c602052600090815260409020805460018201546002830154600390930154919290916001600160a01b03811690600160a01b900460ff1685565b604080519586526020860194909452928401919091526001600160a01b031660608301521515608082015260a00161013a565b600554610269906001600160a01b031681565b6040516001600160a01b03909116815260200161013a565b600454610269906001600160a01b031681565b61029c6104d5565b005b61029c6102ac3660046110ed565b610584565b6000546001600160a01b0316610269565b7f0000000000000000000000000000000000000000000000000000000000000000610269565b6101566105e3565b600954610269906001600160a01b031681565b61029c610311366004611127565b610668565b61029c610324366004611022565b610679565b610156610337366004611050565b6108a7565b60006001600160e01b031982166385572ffb60e01b148061036d57506001600160e01b031982166301ffc9a760e01b145b92915050565b600b818154811061038357600080fd5b600091825260209091200154905081565b600d60205281600052604060002081815481106103b057600080fd5b90600052602060002001600091509150505481565b6000606060025460038080546103da90611144565b80601f016020809104026020016040519081016040528092919081815260200182805461040690611144565b80156104535780601f1061042857610100808354040283529160200191610453565b820191906000526020600020905b81548152906001019060200180831161043657829003601f168201915b50505050509050915091509091565b6008546040805163313ce56760e01b815290516000926001600160a01b03169163313ce5679160048083019260209291908290030181865afa1580156104ac573d6000803e3d6000fd5b505050506040513d601f19601f820116820180604052508101906104d0919061117e565b905090565b6001546001600160a01b0316331461052d5760405162461bcd60e51b815260206004820152601660248201527526bab9ba10313290383937b837b9b2b21037bbb732b960511b60448201526064015b60405180910390fd5b60008054336001600160a01b0319808316821784556001805490911690556040516001600160a01b0390921692909183917f8be0079c531659141344cd1fd0a4f28419497f9722a3daafe3b4186f6b6457e091a350565b336001600160a01b037f000000000000000000000000000000000000000000000000000000000000000016146105cf576040516335fdcccd60e21b8152336004820152602401610524565b6105e06105db82611376565b610cd1565b50565b600080600860009054906101000a90046001600160a01b03166001600160a01b031663feaf968c6040518163ffffffff1660e01b815260040160a060405180830381865afa158015610639573d6000803e3d6000fd5b505050506040513d601f19601f8201168201806040525081019061065d919061143c565b509195945050505050565b610670610ef3565b6105e081610f48565b80600a54116106c25760405162461bcd60e51b81526020600482015260156024820152741b9bdb995e1a5cdd195b9d08189d58dad95d081a59605a1b6044820152606401610524565b6000818152600c602052604090206003810154600160a01b900460ff161561072c5760405162461bcd60e51b815260206004820152601760248201527f63616e7420647261696e20656d707479206275636b65740000000000000000006044820152606401610524565b60038101805460ff60a01b1916600160a01b17905560055460018201546040516323b872dd60e01b815233600482015230602482015260448101919091526001600160a01b03909116906323b872dd906064016020604051808303816000875af115801561079e573d6000803e3d6000fd5b505050506040513d601f19601f820116820180604052508101906107c2919061148c565b506003810154336001600160a01b03909116036107f4576009546107ef906001600160a01b0316836108a7565b505050565b60006012610800610462565b60ff1683600001546108106105e3565b61081a91906114c4565b61082491906114db565b61082e91906114db565b9050806002836001015461084291906114db565b61084d9060036114c4565b1061088b5760405162461bcd60e51b815260206004820152600e60248201526d43616e74206c697175696461746560901b6044820152606401610524565b6009546108a1906001600160a01b0316846108a7565b50505050565b60006108b1610ef3565b6040805160a081019091526001600160a01b03841660c08201526000908060e081016040516020818303038152906040528152602001843360405160200161090c9291909182526001600160a01b0316602082015260400190565b60408051601f198184030181529190528152602001600060405190808252806020026020018201604052801561096857816020015b60408051808201909152600080825260208201528152602001906001900390816109415790505b5081526007546001600160a01b0316602080830191909152604080518083018252620927c090819052815160248082019290925282518082039092018252604401825291820180516001600160e01b03166397a657c960e01b179052909101526006546008546040516320487ded60e01b81529293506000926001600160a01b03909216916320487ded91610a1391600160a01b9091046001600160401b03169086906004016114fd565b602060405180830381865afa158015610a30573d6000803e3d6000fd5b505050506040513d601f19601f82011682018060405250810190610a5491906115d6565b6007546040516370a0823160e01b81523060048201529192506001600160a01b0316906370a0823190602401602060405180830381865afa158015610a9d573d6000803e3d6000fd5b505050506040513d601f19601f82011682018060405250810190610ac191906115d6565b811115610b58576007546040516370a0823160e01b81523060048201526001600160a01b03909116906370a0823190602401602060405180830381865afa158015610b10573d6000803e3d6000fd5b505050506040513d601f19601f82011682018060405250810190610b3491906115d6565b604051634787a10360e11b8152600481019190915260248101829052604401610524565b60075460065460405163095ea7b360e01b81526001600160a01b0391821660048201526024810184905291169063095ea7b3906044016020604051808303816000875af1158015610bad573d6000803e3d6000fd5b505050506040513d601f19601f82011682018060405250810190610bd1919061148c565b506006546008546040516396f4e9f960e01b81526001600160a01b03909216916396f4e9f991610c1791600160a01b9091046001600160401b03169086906004016114fd565b6020604051808303816000875af1158015610c36573d6000803e3d6000fd5b505050506040513d601f19601f82011682018060405250810190610c5a91906115d6565b600854600754604080516001600160a01b03808b168252602082018a90529092169082015260608101849052919450600160a01b90046001600160401b03169084907feea8a479f07983d1364c4330c9bf3442a1cd421b79b16909bcc1867188ea676b9060800160405180910390a3505092915050565b6000806000806000808660600151806020019051810190610cf29190611634565b600a8054600b805460018181019092557f0175b7a638427703f0dbe7bb9bbf987a2551717b34e79f33b5b1008d1fa01db9018290556001600160a01b0384166000818152600d6020908152604080832080549586018155835281832090940194909455825160a0810184528981529384018890529183018690526060830152608082018190528254989e50969c50949a5092985090965094509092600c929182610d9b836116aa565b9091555081526020808201929092526040908101600020835181559183015160018301558281015160028301556060830151600390920180546080909401511515600160a01b026001600160a81b03199094166001600160a01b0393841617939093179092556004805492516340c10f1960e01b815292909116916340c10f1991610e3e9185918891016001600160a01b03929092168252602082015260400190565b600060405180830381600087803b158015610e5857600080fd5b505af1158015610e6c573d6000803e3d6000fd5b5050505086602001516001600160401b031687600001517fb1e312a29937cc11967b0e4a346fef1ae132424ebaba9dc6d90249dba053e87c8960400151806020019051810190610ebc91906116c3565b8a60600151806020019051810190610ed491906116e0565b604051610ee2929190611714565b60405180910390a350505050505050565b6000546001600160a01b03163314610f465760405162461bcd60e51b815260206004820152601660248201527527b7363c9031b0b63630b1363290313c9037bbb732b960511b6044820152606401610524565b565b336001600160a01b03821603610fa05760405162461bcd60e51b815260206004820152601760248201527f43616e6e6f74207472616e7366657220746f2073656c660000000000000000006044820152606401610524565b600180546001600160a01b0319166001600160a01b0383811691821790925560008054604051929316917fed8889f560326eb138920d842192f0eb3dd22b4f139c87a2c57538e05bae12789190a350565b60006020828403121561100357600080fd5b81356001600160e01b03198116811461101b57600080fd5b9392505050565b60006020828403121561103457600080fd5b5035919050565b6001600160a01b03811681146105e057600080fd5b6000806040838503121561106357600080fd5b823561106e8161103b565b946020939093013593505050565b60005b8381101561109757818101518382015260200161107f565b50506000910152565b600081518084526110b881602086016020860161107c565b601f01601f19169290920160200192915050565b8281526040602082015260006110e560408301846110a0565b949350505050565b6000602082840312156110ff57600080fd5b81356001600160401b0381111561111557600080fd5b820160a0818503121561101b57600080fd5b60006020828403121561113957600080fd5b813561101b8161103b565b600181811c9082168061115857607f821691505b60208210810361117857634e487b7160e01b600052602260045260246000fd5b50919050565b60006020828403121561119057600080fd5b815160ff8116811461101b57600080fd5b634e487b7160e01b600052604160045260246000fd5b604080519081016001600160401b03811182821017156111d9576111d96111a1565b60405290565b60405160a081016001600160401b03811182821017156111d9576111d96111a1565b604051601f8201601f191681016001600160401b0381118282101715611229576112296111a1565b604052919050565b80356001600160401b038116811461124857600080fd5b919050565b60006001600160401b03821115611266576112666111a1565b50601f01601f191660200190565b600082601f83011261128557600080fd5b81356112986112938261124d565b611201565b8181528460208386010111156112ad57600080fd5b816020850160208301376000918101602001919091529392505050565b600082601f8301126112db57600080fd5b813560206001600160401b038211156112f6576112f66111a1565b611304818360051b01611201565b82815260069290921b8401810191818101908684111561132357600080fd5b8286015b8481101561136b57604081890312156113405760008081fd5b6113486111b7565b81356113538161103b565b81528185013585820152835291830191604001611327565b509695505050505050565b600060a0823603121561138857600080fd5b6113906111df565b823581526113a060208401611231565b602082015260408301356001600160401b03808211156113bf57600080fd5b6113cb36838701611274565b604084015260608501359150808211156113e457600080fd5b6113f036838701611274565b6060840152608085013591508082111561140957600080fd5b50611416368286016112ca565b60808301525092915050565b805169ffffffffffffffffffff8116811461124857600080fd5b600080600080600060a0868803121561145457600080fd5b61145d86611422565b945060208601519350604086015192506060860151915061148060808701611422565b90509295509295909350565b60006020828403121561149e57600080fd5b8151801515811461101b57600080fd5b634e487b7160e01b600052601160045260246000fd5b808202811582820484141761036d5761036d6114ae565b6000826114f857634e487b7160e01b600052601260045260246000fd5b500490565b600060406001600160401b038516835260208181850152845160a08386015261152960e08601826110a0565b905081860151603f198087840301606088015261154683836110a0565b88860151888203830160808a01528051808352908601945060009350908501905b8084101561159957845180516001600160a01b0316835286015186830152938501936001939093019290860190611567565b5060608901516001600160a01b031660a08901526080890151888203830160c08a015295506115c881876110a0565b9a9950505050505050505050565b6000602082840312156115e857600080fd5b5051919050565b600082601f83011261160057600080fd5b815161160e6112938261124d565b81815284602083860101111561162357600080fd5b6110e582602083016020870161107c565b60008060008060008060c0878903121561164d57600080fd5b86516001600160401b0381111561166357600080fd5b61166f89828a016115ef565b9650506020870151945060408701519350606087015192506080870151915060a087015161169c8161103b565b809150509295509295509295565b6000600182016116bc576116bc6114ae565b5060010190565b6000602082840312156116d557600080fd5b815161101b8161103b565b6000602082840312156116f257600080fd5b81516001600160401b0381111561170857600080fd5b6110e5848285016115ef565b6001600160a01b03831681526040602082018190526000906110e5908301846110a056fea2646970667358221220cd224d02c2e48d706435b9d8fa8aa42da4bc9a0042e123685db0baf816111baf64736f6c63430008140033",
  "devdoc": {
    "kind": "dev",
    "methods": {
      "ccipReceive((bytes32,uint64,bytes,bytes,(address,uint256)[]))": {
        "details": "Note ensure you check the msg.sender is the OffRampRouter",
        "params": {
          "message": "CCIP Message"
        }
      },
      "constructor": {
        "params": {
          "router": "The address of the router contract."
        }
      },
      "getLastReceivedMessageDetails()": {
        "returns": {
          "messageId": "The ID of the last received message.",
          "text": "The last received text."
        }
      },
      "getRouter()": {
        "returns": {
          "_0": "i_router address"
        }
      },
      "supportsInterface(bytes4)": {
        "details": "Should indicate whether the contract implements IAny2EVMMessageReceiver e.g. return interfaceId == type(IAny2EVMMessageReceiver).interfaceId || interfaceId == type(IERC165).interfaceId This allows CCIP to check if ccipReceive is available before calling it. If this returns false or reverts, only tokens are transferred to the receiver. If this returns true, tokens are transferred and ccipReceive is called atomically. Additionally, if the receiver address does not have code associated with it at the time of execution (EXTCODESIZE returns 0), only tokens will be transferred.",
        "params": {
          "interfaceId": "The interfaceId to check"
        },
        "returns": {
          "_0": "true if the interfaceId is supported"
        }
      }
    },
    "title": "- A simple contract for receiving string data across chains.",
    "version": 1
  },
  "userdoc": {
    "kind": "user",
    "methods": {
      "acceptOwnership()": {
        "notice": "Allows an ownership transfer to be completed by the recipient."
      },
      "ccipReceive((bytes32,uint64,bytes,bytes,(address,uint256)[]))": {
        "notice": "Called by the Router to deliver a message. If this reverts, any token transfers also revert. The message will move to a FAILED state and become available for manual execution."
      },
      "constructor": {
        "notice": "Constructor initializes the contract with the router address."
      },
      "getLastReceivedMessageDetails()": {
        "notice": "Fetches the details of the last received message."
      },
      "getRouter()": {
        "notice": "Return the current router"
      },
      "owner()": {
        "notice": "Get the current owner"
      },
      "supportsInterface(bytes4)": {
        "notice": "IERC165 supports an interfaceId"
      },
      "transferOwnership(address)": {
        "notice": "Allows an owner to begin transferring ownership to a new address, pending."
      }
    },
    "version": 1
  },
  "storageLayout": {
    "storage": [
      {
        "astId": 268,
        "contract": "contracts/Receiver.sol:FacilitatorReceiver",
        "label": "s_owner",
        "offset": 0,
        "slot": "0",
        "type": "t_address"
      },
      {
        "astId": 270,
        "contract": "contracts/Receiver.sol:FacilitatorReceiver",
        "label": "s_pendingOwner",
        "offset": 0,
        "slot": "1",
        "type": "t_address"
      },
      {
        "astId": 5630,
        "contract": "contracts/Receiver.sol:FacilitatorReceiver",
        "label": "s_lastReceivedMessageId",
        "offset": 0,
        "slot": "2",
        "type": "t_bytes32"
      },
      {
        "astId": 5632,
        "contract": "contracts/Receiver.sol:FacilitatorReceiver",
        "label": "s_lastReceivedText",
        "offset": 0,
        "slot": "3",
        "type": "t_string_storage"
      },
      {
        "astId": 5635,
        "contract": "contracts/Receiver.sol:FacilitatorReceiver",
        "label": "ghoToken",
        "offset": 0,
        "slot": "4",
        "type": "t_contract(IGhoToken)5522"
      },
      {
        "astId": 5638,
        "contract": "contracts/Receiver.sol:FacilitatorReceiver",
        "label": "ghoErc",
        "offset": 0,
        "slot": "5",
        "type": "t_contract(IERC20)5395"
      },
      {
        "astId": 5641,
        "contract": "contracts/Receiver.sol:FacilitatorReceiver",
        "label": "s_router",
        "offset": 0,
        "slot": "6",
        "type": "t_contract(IRouterClient)184"
      },
      {
        "astId": 5644,
        "contract": "contracts/Receiver.sol:FacilitatorReceiver",
        "label": "s_linkToken",
        "offset": 0,
        "slot": "7",
        "type": "t_contract(LinkTokenInterface)607"
      },
      {
        "astId": 5647,
        "contract": "contracts/Receiver.sol:FacilitatorReceiver",
        "label": "dataFeed",
        "offset": 0,
        "slot": "8",
        "type": "t_contract(AggregatorV3Interface)512"
      },
      {
        "astId": 5650,
        "contract": "contracts/Receiver.sol:FacilitatorReceiver",
        "label": "destinationChainSelector",
        "offset": 20,
        "slot": "8",
        "type": "t_uint64"
      },
      {
        "astId": 5652,
        "contract": "contracts/Receiver.sol:FacilitatorReceiver",
        "label": "senderVault",
        "offset": 0,
        "slot": "9",
        "type": "t_address"
      },
      {
        "astId": 5654,
        "contract": "contracts/Receiver.sol:FacilitatorReceiver",
        "label": "bucketIndex",
        "offset": 0,
        "slot": "10",
        "type": "t_uint256"
      },
      {
        "astId": 5657,
        "contract": "contracts/Receiver.sol:FacilitatorReceiver",
        "label": "activeBuckets",
        "offset": 0,
        "slot": "11",
        "type": "t_array(t_uint256)dyn_storage"
      },
      {
        "astId": 5662,
        "contract": "contracts/Receiver.sol:FacilitatorReceiver",
        "label": "allbuckets",
        "offset": 0,
        "slot": "12",
        "type": "t_mapping(t_uint256,t_struct(Bucket)5593_storage)"
      },
      {
        "astId": 5667,
        "contract": "contracts/Receiver.sol:FacilitatorReceiver",
        "label": "userBuckets",
        "offset": 0,
        "slot": "13",
        "type": "t_mapping(t_address,t_array(t_uint256)dyn_storage)"
      }
    ],
    "types": {
      "t_address": {
        "encoding": "inplace",
        "label": "address",
        "numberOfBytes": "20"
      },
      "t_array(t_uint256)dyn_storage": {
        "base": "t_uint256",
        "encoding": "dynamic_array",
        "label": "uint256[]",
        "numberOfBytes": "32"
      },
      "t_bool": {
        "encoding": "inplace",
        "label": "bool",
        "numberOfBytes": "1"
      },
      "t_bytes32": {
        "encoding": "inplace",
        "label": "bytes32",
        "numberOfBytes": "32"
      },
      "t_contract(AggregatorV3Interface)512": {
        "encoding": "inplace",
        "label": "contract AggregatorV3Interface",
        "numberOfBytes": "20"
      },
      "t_contract(IERC20)5395": {
        "encoding": "inplace",
        "label": "contract IERC20",
        "numberOfBytes": "20"
      },
      "t_contract(IGhoToken)5522": {
        "encoding": "inplace",
        "label": "contract IGhoToken",
        "numberOfBytes": "20"
      },
      "t_contract(IRouterClient)184": {
        "encoding": "inplace",
        "label": "contract IRouterClient",
        "numberOfBytes": "20"
      },
      "t_contract(LinkTokenInterface)607": {
        "encoding": "inplace",
        "label": "contract LinkTokenInterface",
        "numberOfBytes": "20"
      },
      "t_mapping(t_address,t_array(t_uint256)dyn_storage)": {
        "encoding": "mapping",
        "key": "t_address",
        "label": "mapping(address => uint256[])",
        "numberOfBytes": "32",
        "value": "t_array(t_uint256)dyn_storage"
      },
      "t_mapping(t_uint256,t_struct(Bucket)5593_storage)": {
        "encoding": "mapping",
        "key": "t_uint256",
        "label": "mapping(uint256 => struct Bucket)",
        "numberOfBytes": "32",
        "value": "t_struct(Bucket)5593_storage"
      },
      "t_string_storage": {
        "encoding": "bytes",
        "label": "string",
        "numberOfBytes": "32"
      },
      "t_struct(Bucket)5593_storage": {
        "encoding": "inplace",
        "label": "struct Bucket",
        "members": [
          {
            "astId": 5584,
            "contract": "contracts/Receiver.sol:FacilitatorReceiver",
            "label": "collateral",
            "offset": 0,
            "slot": "0",
            "type": "t_uint256"
          },
          {
            "astId": 5586,
            "contract": "contracts/Receiver.sol:FacilitatorReceiver",
            "label": "amount",
            "offset": 0,
            "slot": "1",
            "type": "t_uint256"
          },
          {
            "astId": 5588,
            "contract": "contracts/Receiver.sol:FacilitatorReceiver",
            "label": "CollateralWorth",
            "offset": 0,
            "slot": "2",
            "type": "t_uint256"
          },
          {
            "astId": 5590,
            "contract": "contracts/Receiver.sol:FacilitatorReceiver",
            "label": "user",
            "offset": 0,
            "slot": "3",
            "type": "t_address"
          },
          {
            "astId": 5592,
            "contract": "contracts/Receiver.sol:FacilitatorReceiver",
            "label": "drained",
            "offset": 20,
            "slot": "3",
            "type": "t_bool"
          }
        ],
        "numberOfBytes": "128"
      },
      "t_uint256": {
        "encoding": "inplace",
        "label": "uint256",
        "numberOfBytes": "32"
      },
      "t_uint64": {
        "encoding": "inplace",
        "label": "uint64",
        "numberOfBytes": "8"
      }
    }
  }
}