{
  "address": "0xBe4165699108C37067ABba12dAC5f7F6D0525284",
  "abi": [
    {
      "inputs": [
        {
          "internalType": "address",
          "name": "_router",
          "type": "address"
        },
        {
          "internalType": "address",
          "name": "_link",
          "type": "address"
        },
        {
          "internalType": "address",
          "name": "_collateralToken",
          "type": "address"
        },
        {
          "internalType": "address",
          "name": "_receiverFacilitator",
          "type": "address"
        }
      ],
      "stateMutability": "nonpayable",
      "type": "constructor"
    },
    {
      "inputs": [
        {
          "internalType": "address",
          "name": "router",
          "type": "address"
        }
      ],
      "name": "InvalidRouter",
      "type": "error"
    },
    {
      "inputs": [
        {
          "internalType": "uint256",
          "name": "currentBalance",
          "type": "uint256"
        },
        {
          "internalType": "uint256",
          "name": "calculatedFees",
          "type": "uint256"
        }
      ],
      "name": "NotEnoughBalance",
      "type": "error"
    },
    {
      "anonymous": false,
      "inputs": [
        {
          "indexed": true,
          "internalType": "bytes32",
          "name": "messageId",
          "type": "bytes32"
        },
        {
          "indexed": true,
          "internalType": "uint64",
          "name": "destinationChainSelector",
          "type": "uint64"
        },
        {
          "indexed": false,
          "internalType": "address",
          "name": "receiver",
          "type": "address"
        },
        {
          "indexed": false,
          "internalType": "string",
          "name": "text",
          "type": "string"
        },
        {
          "indexed": false,
          "internalType": "address",
          "name": "feeToken",
          "type": "address"
        },
        {
          "indexed": false,
          "internalType": "uint256",
          "name": "fees",
          "type": "uint256"
        }
      ],
      "name": "MessageSent",
      "type": "event"
    },
    {
      "anonymous": false,
      "inputs": [
        {
          "indexed": true,
          "internalType": "address",
          "name": "from",
          "type": "address"
        },
        {
          "indexed": true,
          "internalType": "address",
          "name": "to",
          "type": "address"
        }
      ],
      "name": "OwnershipTransferRequested",
      "type": "event"
    },
    {
      "anonymous": false,
      "inputs": [
        {
          "indexed": true,
          "internalType": "address",
          "name": "from",
          "type": "address"
        },
        {
          "indexed": true,
          "internalType": "address",
          "name": "to",
          "type": "address"
        }
      ],
      "name": "OwnershipTransferred",
      "type": "event"
    },
    {
      "inputs": [],
      "name": "acceptOwnership",
      "outputs": [],
      "stateMutability": "nonpayable",
      "type": "function"
    },
    {
      "inputs": [
        {
          "internalType": "uint256",
          "name": "",
          "type": "uint256"
        }
      ],
      "name": "buckets",
      "outputs": [
        {
          "internalType": "uint256",
          "name": "collateral",
          "type": "uint256"
        },
        {
          "internalType": "uint256",
          "name": "amount",
          "type": "uint256"
        },
        {
          "internalType": "uint256",
          "name": "CollateralWorth",
          "type": "uint256"
        },
        {
          "internalType": "address",
          "name": "user",
          "type": "address"
        },
        {
          "internalType": "bool",
          "name": "drained",
          "type": "bool"
        }
      ],
      "stateMutability": "view",
      "type": "function"
    },
    {
      "inputs": [
        {
          "components": [
            {
              "internalType": "bytes32",
              "name": "messageId",
              "type": "bytes32"
            },
            {
              "internalType": "uint64",
              "name": "sourceChainSelector",
              "type": "uint64"
            },
            {
              "internalType": "bytes",
              "name": "sender",
              "type": "bytes"
            },
            {
              "internalType": "bytes",
              "name": "data",
              "type": "bytes"
            },
            {
              "components": [
                {
                  "internalType": "address",
                  "name": "token",
                  "type": "address"
                },
                {
                  "internalType": "uint256",
                  "name": "amount",
                  "type": "uint256"
                }
              ],
              "internalType": "struct Client.EVMTokenAmount[]",
              "name": "destTokenAmounts",
              "type": "tuple[]"
            }
          ],
          "internalType": "struct Client.Any2EVMMessage",
          "name": "message",
          "type": "tuple"
        }
      ],
      "name": "ccipReceive",
      "outputs": [],
      "stateMutability": "nonpayable",
      "type": "function"
    },
    {
      "inputs": [],
      "name": "collateralToken",
      "outputs": [
        {
          "internalType": "contract IERC20",
          "name": "",
          "type": "address"
        }
      ],
      "stateMutability": "view",
      "type": "function"
    },
    {
      "inputs": [
        {
          "internalType": "uint256",
          "name": "_collateral",
          "type": "uint256"
        },
        {
          "internalType": "uint256",
          "name": "_amount",
          "type": "uint256"
        }
      ],
      "name": "deposit",
      "outputs": [],
      "stateMutability": "nonpayable",
      "type": "function"
    },
    {
      "inputs": [],
      "name": "destinationChainSelector",
      "outputs": [
        {
          "internalType": "uint64",
          "name": "",
          "type": "uint64"
        }
      ],
      "stateMutability": "view",
      "type": "function"
    },
    {
      "inputs": [],
      "name": "getChainlinkDataFeedLatestAnswer",
      "outputs": [
        {
          "internalType": "int256",
          "name": "",
          "type": "int256"
        }
      ],
      "stateMutability": "view",
      "type": "function"
    },
    {
      "inputs": [],
      "name": "getChainlinkDecimal",
      "outputs": [
        {
          "internalType": "uint8",
          "name": "",
          "type": "uint8"
        }
      ],
      "stateMutability": "view",
      "type": "function"
    },
    {
      "inputs": [
        {
          "internalType": "uint256",
          "name": "_collateral",
          "type": "uint256"
        }
      ],
      "name": "getCurrentCollateralWorth",
      "outputs": [
        {
          "internalType": "uint256",
          "name": "",
          "type": "uint256"
        }
      ],
      "stateMutability": "view",
      "type": "function"
    },
    {
      "inputs": [],
      "name": "getRouter",
      "outputs": [
        {
          "internalType": "address",
          "name": "",
          "type": "address"
        }
      ],
      "stateMutability": "view",
      "type": "function"
    },
    {
      "inputs": [],
      "name": "owner",
      "outputs": [
        {
          "internalType": "address",
          "name": "",
          "type": "address"
        }
      ],
      "stateMutability": "view",
      "type": "function"
    },
    {
      "inputs": [],
      "name": "protocolRewards",
      "outputs": [
        {
          "internalType": "uint256",
          "name": "",
          "type": "uint256"
        }
      ],
      "stateMutability": "view",
      "type": "function"
    },
    {
      "inputs": [],
      "name": "receiverFacilitator",
      "outputs": [
        {
          "internalType": "address",
          "name": "",
          "type": "address"
        }
      ],
      "stateMutability": "view",
      "type": "function"
    },
    {
      "inputs": [
        {
          "internalType": "address",
          "name": "receiver",
          "type": "address"
        },
        {
          "internalType": "string",
          "name": "text",
          "type": "string"
        },
        {
          "internalType": "uint256",
          "name": "collateral",
          "type": "uint256"
        },
        {
          "internalType": "uint256",
          "name": "amount",
          "type": "uint256"
        },
        {
          "internalType": "uint256",
          "name": "collateralWorth",
          "type": "uint256"
        },
        {
          "internalType": "uint256",
          "name": "id",
          "type": "uint256"
        }
      ],
      "name": "sendMessage",
      "outputs": [
        {
          "internalType": "bytes32",
          "name": "messageId",
          "type": "bytes32"
        }
      ],
      "stateMutability": "nonpayable",
      "type": "function"
    },
    {
      "inputs": [
        {
          "internalType": "address",
          "name": "_receiverFacilitator",
          "type": "address"
        }
      ],
      "name": "setFacilitator",
      "outputs": [],
      "stateMutability": "nonpayable",
      "type": "function"
    },
    {
      "inputs": [
        {
          "internalType": "bytes4",
          "name": "interfaceId",
          "type": "bytes4"
        }
      ],
      "name": "supportsInterface",
      "outputs": [
        {
          "internalType": "bool",
          "name": "",
          "type": "bool"
        }
      ],
      "stateMutability": "pure",
      "type": "function"
    },
    {
      "inputs": [
        {
          "internalType": "address",
          "name": "to",
          "type": "address"
        }
      ],
      "name": "transferOwnership",
      "outputs": [],
      "stateMutability": "nonpayable",
      "type": "function"
    },
    {
      "inputs": [
        {
          "internalType": "address",
          "name": "",
          "type": "address"
        }
      ],
      "name": "userBucketAmount",
      "outputs": [
        {
          "internalType": "uint256",
          "name": "",
          "type": "uint256"
        }
      ],
      "stateMutability": "view",
      "type": "function"
    },
    {
      "inputs": [
        {
          "internalType": "address",
          "name": "",
          "type": "address"
        },
        {
          "internalType": "uint256",
          "name": "",
          "type": "uint256"
        }
      ],
      "name": "userBuckets",
      "outputs": [
        {
          "internalType": "uint256",
          "name": "",
          "type": "uint256"
        }
      ],
      "stateMutability": "view",
      "type": "function"
    },
    {
      "inputs": [],
      "name": "withdrawRewards",
      "outputs": [],
      "stateMutability": "nonpayable",
      "type": "function"
    }
  ],
  "transactionHash": "0x583ccdaf9ce093cd037a1c2bd49a964013157699498b53d53ce5b0b1af437e58",
  "args": [
    "0x0bf3de8c5d3e8a2b34d2beeb17abfcebaf363a59",
    "0x779877A7B0D9E8603169DdbD7836e478b4624789",
    "0x798FD40D294b09Ed0cD4b27Ddaa7DB909408Af0f",
    "0x6e7F1a7d1Bac9c7784c7C7Cdb098A727F62E95c7"
  ],
  "numDeployments": 1,
  "solcInputHash": "4315702849858bbeacf080aae29adac1",
  "bytecode": "0x60a060405260068054600160a01b600160e01b03191667adecc60412ce25a560a01b1790553480156200003157600080fd5b5060405162001a6538038062001a6583398101604081905262000054916200024e565b833380600081620000ac5760405162461bcd60e51b815260206004820152601860248201527f43616e6e6f7420736574206f776e657220746f207a65726f000000000000000060448201526064015b60405180910390fd5b600080546001600160a01b0319166001600160a01b0384811691909117909155811615620000df57620000df8162000186565b5050506001600160a01b0381166200010e576040516335fdcccd60e21b815260006004820152602401620000a3565b6001600160a01b03908116608052600280546001600160a01b03199081169683169690961790556003805486169482169490941790935560048054731b44f3514812d835eb1bdb0acb33d3fa3351ee4390861617905560058054851692841692909217909155600680549093169116179055620002ab565b336001600160a01b03821603620001e05760405162461bcd60e51b815260206004820152601760248201527f43616e6e6f74207472616e7366657220746f2073656c660000000000000000006044820152606401620000a3565b600180546001600160a01b0319166001600160a01b0383811691821790925560008054604051929316917fed8889f560326eb138920d842192f0eb3dd22b4f139c87a2c57538e05bae12789190a350565b80516001600160a01b03811681146200024957600080fd5b919050565b600080600080608085870312156200026557600080fd5b620002708562000231565b9350620002806020860162000231565b9250620002906040860162000231565b9150620002a06060860162000231565b905092959194509250565b608051611797620002ce600039600081816102c9015261099c01526117976000f3fe608060405234801561001057600080fd5b506004361061012c5760003560e01c806379ba5097116100ad578063b2016bd411610071578063b2016bd4146102ed578063bea4dfb514610300578063c7b8981c14610308578063e2bbb15814610310578063f2fde38b1461032357600080fd5b806379ba50971461025557806385572ffb1461025d5780638da5cb5b146102705780639b51fb0d14610281578063b0f479a1146102c757600080fd5b806351b1873d116100f457806351b1873d146101e05780635b16f6f5146101fa5780637560b27d1461021a57806375bcb1611461022d578063780259c91461024257600080fd5b806301ffc9a7146101315780631a9c7ebb1461015957806329df64791461017a57806331db1ffc14610183578063472a37c5146101b5575b600080fd5b61014461013f36600461103b565b610336565b60405190151581526020015b60405180910390f35b61016c610167366004611081565b61036d565b604051908152602001610150565b61016c60075481565b60065461019d90600160a01b90046001600160401b031681565b6040516001600160401b039091168152602001610150565b6006546101c8906001600160a01b031681565b6040516001600160a01b039091168152602001610150565b6101e861039e565b60405160ff9091168152602001610150565b61016c6102083660046110ad565b600a6020526000908152604090205481565b61016c6102283660046110ca565b61041c565b61024061023b3660046110ad565b6104a5565b005b61016c6102503660046111ca565b6104cf565b6102406108e7565b61024061026b366004611250565b610991565b6000546001600160a01b03166101c8565b61029461028f3660046110ca565b6109f0565b604080519586526020860194909452928401919091526001600160a01b031660608301521515608082015260a001610150565b7f00000000000000000000000000000000000000000000000000000000000000006101c8565b6005546101c8906001600160a01b031681565b61016c610a3f565b610240610ab7565b61024061031e36600461128a565b610b40565b6102406103313660046110ad565b610e07565b60006001600160e01b031982166385572ffb60e01b148061036757506001600160e01b031982166301ffc9a760e01b145b92915050565b6009602052816000526040600020818154811061038957600080fd5b90600052602060002001600091509150505481565b6000600460009054906101000a90046001600160a01b03166001600160a01b031663313ce5676040518163ffffffff1660e01b8152600401602060405180830381865afa1580156103f3573d6000803e3d6000fd5b505050506040513d601f19601f8201168201806040525081019061041791906112ac565b905090565b600080610427610a3f565b9050600061043361039e565b60ff169050600081116104805760405162461bcd60e51b815260206004820152601060248201526f496e76616c696420646563696d616c7360801b60448201526064015b60405180910390fd5b670de0b6b3a764000061049383866112e5565b61049d91906112fc565b949350505050565b6104ad610e18565b600680546001600160a01b0319166001600160a01b0392909216919091179055565b60006104d9610e18565b6040805160a081019091526001600160a01b03881660c08201526000908060e08101604051602081830303815290604052815260200188858989893360405160200161052a96959493929190611364565b60408051601f198184030181529190528152602001600060405190808252806020026020018201604052801561058657816020015b604080518082019091526000808252602082015281526020019060019003908161055f5790505b5081526003546001600160a01b0316602080830191909152604080518083018252620dbba090819052815160248082019290925282518082039092018252604401825291820180516001600160e01b03166397a657c960e01b179052909101526002546006546040516320487ded60e01b81529293506000926001600160a01b03909216916320487ded9161063191600160a01b9091046001600160401b03169086906004016113a9565b602060405180830381865afa15801561064e573d6000803e3d6000fd5b505050506040513d601f19601f820116820180604052508101906106729190611482565b6003546040516370a0823160e01b81523060048201529192506001600160a01b0316906370a0823190602401602060405180830381865afa1580156106bb573d6000803e3d6000fd5b505050506040513d601f19601f820116820180604052508101906106df9190611482565b811115610776576003546040516370a0823160e01b81523060048201526001600160a01b03909116906370a0823190602401602060405180830381865afa15801561072e573d6000803e3d6000fd5b505050506040513d601f19601f820116820180604052508101906107529190611482565b604051634787a10360e11b8152600481019190915260248101829052604401610477565b60035460025460405163095ea7b360e01b81526001600160a01b0391821660048201526024810184905291169063095ea7b3906044016020604051808303816000875af11580156107cb573d6000803e3d6000fd5b505050506040513d601f19601f820116820180604052508101906107ef919061149b565b506002546006546040516396f4e9f960e01b81526001600160a01b03909216916396f4e9f99161083591600160a01b9091046001600160401b03169086906004016113a9565b6020604051808303816000875af1158015610854573d6000803e3d6000fd5b505050506040513d601f19601f820116820180604052508101906108789190611482565b600654600354604051929550600160a01b9091046001600160401b03169185917fd36445359b3c6e26c120659aef090ce0f2eb005cf9af450d11aa1225609b4f4d916108d3918e918e916001600160a01b03169088906114bd565b60405180910390a350509695505050505050565b6001546001600160a01b0316331461093a5760405162461bcd60e51b815260206004820152601660248201527526bab9ba10313290383937b837b9b2b21037bbb732b960511b6044820152606401610477565b60008054336001600160a01b0319808316821784556001805490911690556040516001600160a01b0390921692909183917f8be0079c531659141344cd1fd0a4f28419497f9722a3daafe3b4186f6b6457e091a350565b336001600160a01b037f000000000000000000000000000000000000000000000000000000000000000016146109dc576040516335fdcccd60e21b8152336004820152602401610477565b6109ed6109e8826115d9565b610e6d565b50565b60088181548110610a0057600080fd5b6000918252602090912060049091020180546001820154600283015460039093015491935091906001600160a01b03811690600160a01b900460ff1685565b6004805460408051633fabe5a360e21b8152905160009384936001600160a01b03169263feaf968c928183019260a0928290030181865afa158015610a88573d6000803e3d6000fd5b505050506040513d601f19601f82011682018060405250810190610aac919061169f565b509195945050505050565b610abf610e18565b60055460075460405163a9059cbb60e01b815233600482015260248101919091526001600160a01b039091169063a9059cbb906044016020604051808303816000875af1158015610b14573d6000803e3d6000fd5b505050506040513d601f19601f82011682018060405250810190610b38919061149b565b506000600755565b6005546040516323b872dd60e01b8152336004820152306024820152604481018490526001600160a01b03909116906323b872dd906064016020604051808303816000875af1158015610b97573d6000803e3d6000fd5b505050506040513d601f19601f82011682018060405250810190610bbb919061149b565b506000610bc78361041c565b90506000610bd361039e565b60ff169050610be76402540be400846112fc565b610bf26002846112fc565b1015610c315760405162461bcd60e51b815260206004820152600e60248201526d1b1bddc818dbdb1b185d195c985b60921b6044820152606401610477565b81151580610c3e57508215155b610c825760405162461bcd60e51b81526020600482015260156024820152740636f6c6c61746572616c20776f727468206973203605c1b6044820152606401610477565b60065460408051808201909152600781526611115413d4d25560ca1b6020820152600854610cc0926001600160a01b031691908790879087906104cf565b50336000818152600960209081526040808320600854815460018101835591855283852090910155928252600a9052908120805491610cfe836116ef565b90915550506040805160a08101825294855260208501938452840191825250336060840190815260006080850181815260088054600181018255925294517ff3f7a9fe364faab93b216da50a3214154f22a0a2b415b23a84c8169e8b636ee360049092029182015592517ff3f7a9fe364faab93b216da50a3214154f22a0a2b415b23a84c8169e8b636ee484015590517ff3f7a9fe364faab93b216da50a3214154f22a0a2b415b23a84c8169e8b636ee5830155517ff3f7a9fe364faab93b216da50a3214154f22a0a2b415b23a84c8169e8b636ee6909101805492516001600160a01b039092166001600160a81b031990931692909217600160a01b91151591909102179055565b610e0f610e18565b6109ed81610f92565b6000546001600160a01b03163314610e6b5760405162461bcd60e51b815260206004820152601660248201527527b7363c9031b0b63630b1363290313c9037bbb732b960511b6044820152606401610477565b565b6000808260600151806020019051810190610e889190611708565b91509150600060088381548110610ea157610ea1611738565b600091825260209091206003600490920201908101805460ff60a01b1916600160a01b17905560055481549192506001600160a01b03169063a9059cbb908490610eed906064906112fc565b610ef89060636112e5565b6040516001600160e01b031960e085901b1681526001600160a01b03909216600483015260248201526044016020604051808303816000875af1158015610f43573d6000803e3d6000fd5b505050506040513d601f19601f82011682018060405250810190610f67919061149b565b508054610f76906064906112fc565b60076000828254610f87919061174e565b909155505050505050565b336001600160a01b03821603610fea5760405162461bcd60e51b815260206004820152601760248201527f43616e6e6f74207472616e7366657220746f2073656c660000000000000000006044820152606401610477565b600180546001600160a01b0319166001600160a01b0383811691821790925560008054604051929316917fed8889f560326eb138920d842192f0eb3dd22b4f139c87a2c57538e05bae12789190a350565b60006020828403121561104d57600080fd5b81356001600160e01b03198116811461106557600080fd5b9392505050565b6001600160a01b03811681146109ed57600080fd5b6000806040838503121561109457600080fd5b823561109f8161106c565b946020939093013593505050565b6000602082840312156110bf57600080fd5b81356110658161106c565b6000602082840312156110dc57600080fd5b5035919050565b634e487b7160e01b600052604160045260246000fd5b604080519081016001600160401b038111828210171561111b5761111b6110e3565b60405290565b60405160a081016001600160401b038111828210171561111b5761111b6110e3565b604051601f8201601f191681016001600160401b038111828210171561116b5761116b6110e3565b604052919050565b60006001600160401b0383111561118c5761118c6110e3565b61119f601f8401601f1916602001611143565b90508281528383830111156111b357600080fd5b828260208301376000602084830101529392505050565b60008060008060008060c087890312156111e357600080fd5b86356111ee8161106c565b955060208701356001600160401b0381111561120957600080fd5b8701601f8101891361121a57600080fd5b61122989823560208401611173565b96999698505050506040850135946060810135946080820135945060a09091013592509050565b60006020828403121561126257600080fd5b81356001600160401b0381111561127857600080fd5b820160a0818503121561106557600080fd5b6000806040838503121561129d57600080fd5b50508035926020909101359150565b6000602082840312156112be57600080fd5b815160ff8116811461106557600080fd5b634e487b7160e01b600052601160045260246000fd5b8082028115828204841417610367576103676112cf565b60008261131957634e487b7160e01b600052601260045260246000fd5b500490565b6000815180845260005b8181101561134457602081850181015186830182015201611328565b506000602082860101526020601f19601f83011685010191505092915050565b60c08152600061137760c083018961131e565b6020830197909752506040810194909452606084019290925260808301526001600160a01b031660a090910152919050565b600060406001600160401b038516835260208181850152845160a0838601526113d560e086018261131e565b905081860151603f19808784030160608801526113f2838361131e565b88860151888203830160808a01528051808352908601945060009350908501905b8084101561144557845180516001600160a01b0316835286015186830152938501936001939093019290860190611413565b5060608901516001600160a01b031660a08901526080890151888203830160c08a01529550611474818761131e565b9a9950505050505050505050565b60006020828403121561149457600080fd5b5051919050565b6000602082840312156114ad57600080fd5b8151801515811461106557600080fd5b600060018060a01b038087168352608060208401526114df608084018761131e565b94166040830152506060015292915050565b80356001600160401b038116811461150857600080fd5b919050565b600082601f83011261151e57600080fd5b61106583833560208501611173565b600082601f83011261153e57600080fd5b813560206001600160401b03821115611559576115596110e3565b611567818360051b01611143565b82815260069290921b8401810191818101908684111561158657600080fd5b8286015b848110156115ce57604081890312156115a35760008081fd5b6115ab6110f9565b81356115b68161106c565b8152818501358582015283529183019160400161158a565b509695505050505050565b600060a082360312156115eb57600080fd5b6115f3611121565b82358152611603602084016114f1565b602082015260408301356001600160401b038082111561162257600080fd5b61162e3683870161150d565b6040840152606085013591508082111561164757600080fd5b6116533683870161150d565b6060840152608085013591508082111561166c57600080fd5b506116793682860161152d565b60808301525092915050565b805169ffffffffffffffffffff8116811461150857600080fd5b600080600080600060a086880312156116b757600080fd5b6116c086611685565b94506020860151935060408601519250606086015191506116e360808701611685565b90509295509295909350565b600060018201611701576117016112cf565b5060010190565b6000806040838503121561171b57600080fd5b82519150602083015161172d8161106c565b809150509250929050565b634e487b7160e01b600052603260045260246000fd5b80820180821115610367576103676112cf56fea26469706673582212202f7722a55e9b32c4569bf5e97bc766c04fb565af3ba35fb8b0d2be56acd1ac1d64736f6c63430008140033",
  "devdoc": {
    "kind": "dev",
    "methods": {
      "ccipReceive((bytes32,uint64,bytes,bytes,(address,uint256)[]))": {
        "details": "Note ensure you check the msg.sender is the OffRampRouter",
        "params": {
          "message": "CCIP Message"
        }
      },
      "constructor": {
        "params": {
          "_link": "The address of the link contract.",
          "_router": "The address of the router contract."
        }
      },
      "getRouter()": {
        "returns": {
          "_0": "i_router address"
        }
      },
      "sendMessage(address,string,uint256,uint256,uint256,uint256)": {
        "details": "Assumes your contract has sufficient LINK.",
        "params": {
          "receiver": "The address of the recipient on the destination blockchain.",
          "text": "The string text to be sent."
        },
        "returns": {
          "messageId": "The ID of the message that was sent."
        }
      },
      "supportsInterface(bytes4)": {
        "details": "Should indicate whether the contract implements IAny2EVMMessageReceiver e.g. return interfaceId == type(IAny2EVMMessageReceiver).interfaceId || interfaceId == type(IERC165).interfaceId This allows CCIP to check if ccipReceive is available before calling it. If this returns false or reverts, only tokens are transferred to the receiver. If this returns true, tokens are transferred and ccipReceive is called atomically. Additionally, if the receiver address does not have code associated with it at the time of execution (EXTCODESIZE returns 0), only tokens will be transferred.",
        "params": {
          "interfaceId": "The interfaceId to check"
        },
        "returns": {
          "_0": "true if the interfaceId is supported"
        }
      }
    },
    "title": "- A simple contract for sending string data across chains.",
    "version": 1
  },
  "userdoc": {
    "kind": "user",
    "methods": {
      "acceptOwnership()": {
        "notice": "Allows an ownership transfer to be completed by the recipient."
      },
      "ccipReceive((bytes32,uint64,bytes,bytes,(address,uint256)[]))": {
        "notice": "Called by the Router to deliver a message. If this reverts, any token transfers also revert. The message will move to a FAILED state and become available for manual execution."
      },
      "constructor": {
        "notice": "Constructor initializes the contract with the router address."
      },
      "getRouter()": {
        "notice": "Return the current router"
      },
      "owner()": {
        "notice": "Get the current owner"
      },
      "sendMessage(address,string,uint256,uint256,uint256,uint256)": {
        "notice": "Sends data to receiver on the destination chain."
      },
      "supportsInterface(bytes4)": {
        "notice": "IERC165 supports an interfaceId"
      },
      "transferOwnership(address)": {
        "notice": "Allows an owner to begin transferring ownership to a new address, pending."
      }
    },
    "version": 1
  },
  "storageLayout": {
    "storage": [
      {
        "astId": 268,
        "contract": "contracts/Sender.sol:CollateralLockerSender",
        "label": "s_owner",
        "offset": 0,
        "slot": "0",
        "type": "t_address"
      },
      {
        "astId": 270,
        "contract": "contracts/Sender.sol:CollateralLockerSender",
        "label": "s_pendingOwner",
        "offset": 0,
        "slot": "1",
        "type": "t_address"
      },
      {
        "astId": 730,
        "contract": "contracts/Sender.sol:CollateralLockerSender",
        "label": "s_router",
        "offset": 0,
        "slot": "2",
        "type": "t_contract(IRouterClient)184"
      },
      {
        "astId": 733,
        "contract": "contracts/Sender.sol:CollateralLockerSender",
        "label": "s_linkToken",
        "offset": 0,
        "slot": "3",
        "type": "t_contract(LinkTokenInterface)607"
      },
      {
        "astId": 736,
        "contract": "contracts/Sender.sol:CollateralLockerSender",
        "label": "dataFeed",
        "offset": 0,
        "slot": "4",
        "type": "t_contract(AggregatorV3Interface)512"
      },
      {
        "astId": 739,
        "contract": "contracts/Sender.sol:CollateralLockerSender",
        "label": "collateralToken",
        "offset": 0,
        "slot": "5",
        "type": "t_contract(IERC20)676"
      },
      {
        "astId": 741,
        "contract": "contracts/Sender.sol:CollateralLockerSender",
        "label": "receiverFacilitator",
        "offset": 0,
        "slot": "6",
        "type": "t_address"
      },
      {
        "astId": 744,
        "contract": "contracts/Sender.sol:CollateralLockerSender",
        "label": "destinationChainSelector",
        "offset": 20,
        "slot": "6",
        "type": "t_uint64"
      },
      {
        "astId": 746,
        "contract": "contracts/Sender.sol:CollateralLockerSender",
        "label": "protocolRewards",
        "offset": 0,
        "slot": "7",
        "type": "t_uint256"
      },
      {
        "astId": 750,
        "contract": "contracts/Sender.sol:CollateralLockerSender",
        "label": "buckets",
        "offset": 0,
        "slot": "8",
        "type": "t_array(t_struct(Bucket)702_storage)dyn_storage"
      },
      {
        "astId": 755,
        "contract": "contracts/Sender.sol:CollateralLockerSender",
        "label": "userBuckets",
        "offset": 0,
        "slot": "9",
        "type": "t_mapping(t_address,t_array(t_uint256)dyn_storage)"
      },
      {
        "astId": 759,
        "contract": "contracts/Sender.sol:CollateralLockerSender",
        "label": "userBucketAmount",
        "offset": 0,
        "slot": "10",
        "type": "t_mapping(t_address,t_uint256)"
      }
    ],
    "types": {
      "t_address": {
        "encoding": "inplace",
        "label": "address",
        "numberOfBytes": "20"
      },
      "t_array(t_struct(Bucket)702_storage)dyn_storage": {
        "base": "t_struct(Bucket)702_storage",
        "encoding": "dynamic_array",
        "label": "struct Bucket[]",
        "numberOfBytes": "32"
      },
      "t_array(t_uint256)dyn_storage": {
        "base": "t_uint256",
        "encoding": "dynamic_array",
        "label": "uint256[]",
        "numberOfBytes": "32"
      },
      "t_bool": {
        "encoding": "inplace",
        "label": "bool",
        "numberOfBytes": "1"
      },
      "t_contract(AggregatorV3Interface)512": {
        "encoding": "inplace",
        "label": "contract AggregatorV3Interface",
        "numberOfBytes": "20"
      },
      "t_contract(IERC20)676": {
        "encoding": "inplace",
        "label": "contract IERC20",
        "numberOfBytes": "20"
      },
      "t_contract(IRouterClient)184": {
        "encoding": "inplace",
        "label": "contract IRouterClient",
        "numberOfBytes": "20"
      },
      "t_contract(LinkTokenInterface)607": {
        "encoding": "inplace",
        "label": "contract LinkTokenInterface",
        "numberOfBytes": "20"
      },
      "t_mapping(t_address,t_array(t_uint256)dyn_storage)": {
        "encoding": "mapping",
        "key": "t_address",
        "label": "mapping(address => uint256[])",
        "numberOfBytes": "32",
        "value": "t_array(t_uint256)dyn_storage"
      },
      "t_mapping(t_address,t_uint256)": {
        "encoding": "mapping",
        "key": "t_address",
        "label": "mapping(address => uint256)",
        "numberOfBytes": "32",
        "value": "t_uint256"
      },
      "t_struct(Bucket)702_storage": {
        "encoding": "inplace",
        "label": "struct Bucket",
        "members": [
          {
            "astId": 693,
            "contract": "contracts/Sender.sol:CollateralLockerSender",
            "label": "collateral",
            "offset": 0,
            "slot": "0",
            "type": "t_uint256"
          },
          {
            "astId": 695,
            "contract": "contracts/Sender.sol:CollateralLockerSender",
            "label": "amount",
            "offset": 0,
            "slot": "1",
            "type": "t_uint256"
          },
          {
            "astId": 697,
            "contract": "contracts/Sender.sol:CollateralLockerSender",
            "label": "CollateralWorth",
            "offset": 0,
            "slot": "2",
            "type": "t_uint256"
          },
          {
            "astId": 699,
            "contract": "contracts/Sender.sol:CollateralLockerSender",
            "label": "user",
            "offset": 0,
            "slot": "3",
            "type": "t_address"
          },
          {
            "astId": 701,
            "contract": "contracts/Sender.sol:CollateralLockerSender",
            "label": "drained",
            "offset": 20,
            "slot": "3",
            "type": "t_bool"
          }
        ],
        "numberOfBytes": "128"
      },
      "t_uint256": {
        "encoding": "inplace",
        "label": "uint256",
        "numberOfBytes": "32"
      },
      "t_uint64": {
        "encoding": "inplace",
        "label": "uint64",
        "numberOfBytes": "8"
      }
    }
  }
}