{
  "address": "0xaB431275Ac8796E456150eFfE629967a7ADEe31D",
  "abi": [
    {
      "inputs": [
        {
          "internalType": "address",
          "name": "_router",
          "type": "address"
        },
        {
          "internalType": "address",
          "name": "_link",
          "type": "address"
        },
        {
          "internalType": "address",
          "name": "_collateralToken",
          "type": "address"
        },
        {
          "internalType": "address",
          "name": "_receiverFacilitator",
          "type": "address"
        }
      ],
      "stateMutability": "nonpayable",
      "type": "constructor"
    },
    {
      "inputs": [
        {
          "internalType": "address",
          "name": "router",
          "type": "address"
        }
      ],
      "name": "InvalidRouter",
      "type": "error"
    },
    {
      "inputs": [
        {
          "internalType": "uint256",
          "name": "currentBalance",
          "type": "uint256"
        },
        {
          "internalType": "uint256",
          "name": "calculatedFees",
          "type": "uint256"
        }
      ],
      "name": "NotEnoughBalance",
      "type": "error"
    },
    {
      "anonymous": false,
      "inputs": [
        {
          "indexed": true,
          "internalType": "bytes32",
          "name": "messageId",
          "type": "bytes32"
        },
        {
          "indexed": true,
          "internalType": "uint64",
          "name": "destinationChainSelector",
          "type": "uint64"
        },
        {
          "indexed": false,
          "internalType": "address",
          "name": "receiver",
          "type": "address"
        },
        {
          "indexed": false,
          "internalType": "string",
          "name": "text",
          "type": "string"
        },
        {
          "indexed": false,
          "internalType": "address",
          "name": "feeToken",
          "type": "address"
        },
        {
          "indexed": false,
          "internalType": "uint256",
          "name": "fees",
          "type": "uint256"
        }
      ],
      "name": "MessageSent",
      "type": "event"
    },
    {
      "anonymous": false,
      "inputs": [
        {
          "indexed": true,
          "internalType": "address",
          "name": "from",
          "type": "address"
        },
        {
          "indexed": true,
          "internalType": "address",
          "name": "to",
          "type": "address"
        }
      ],
      "name": "OwnershipTransferRequested",
      "type": "event"
    },
    {
      "anonymous": false,
      "inputs": [
        {
          "indexed": true,
          "internalType": "address",
          "name": "from",
          "type": "address"
        },
        {
          "indexed": true,
          "internalType": "address",
          "name": "to",
          "type": "address"
        }
      ],
      "name": "OwnershipTransferred",
      "type": "event"
    },
    {
      "inputs": [],
      "name": "acceptOwnership",
      "outputs": [],
      "stateMutability": "nonpayable",
      "type": "function"
    },
    {
      "inputs": [
        {
          "internalType": "uint256",
          "name": "",
          "type": "uint256"
        }
      ],
      "name": "buckets",
      "outputs": [
        {
          "internalType": "uint256",
          "name": "collateral",
          "type": "uint256"
        },
        {
          "internalType": "uint256",
          "name": "amount",
          "type": "uint256"
        },
        {
          "internalType": "uint256",
          "name": "CollateralWorth",
          "type": "uint256"
        },
        {
          "internalType": "address",
          "name": "user",
          "type": "address"
        },
        {
          "internalType": "bool",
          "name": "drained",
          "type": "bool"
        }
      ],
      "stateMutability": "view",
      "type": "function"
    },
    {
      "inputs": [
        {
          "components": [
            {
              "internalType": "bytes32",
              "name": "messageId",
              "type": "bytes32"
            },
            {
              "internalType": "uint64",
              "name": "sourceChainSelector",
              "type": "uint64"
            },
            {
              "internalType": "bytes",
              "name": "sender",
              "type": "bytes"
            },
            {
              "internalType": "bytes",
              "name": "data",
              "type": "bytes"
            },
            {
              "components": [
                {
                  "internalType": "address",
                  "name": "token",
                  "type": "address"
                },
                {
                  "internalType": "uint256",
                  "name": "amount",
                  "type": "uint256"
                }
              ],
              "internalType": "struct Client.EVMTokenAmount[]",
              "name": "destTokenAmounts",
              "type": "tuple[]"
            }
          ],
          "internalType": "struct Client.Any2EVMMessage",
          "name": "message",
          "type": "tuple"
        }
      ],
      "name": "ccipReceive",
      "outputs": [],
      "stateMutability": "nonpayable",
      "type": "function"
    },
    {
      "inputs": [],
      "name": "collateralToken",
      "outputs": [
        {
          "internalType": "contract IERC20",
          "name": "",
          "type": "address"
        }
      ],
      "stateMutability": "view",
      "type": "function"
    },
    {
      "inputs": [
        {
          "internalType": "uint256",
          "name": "_collateral",
          "type": "uint256"
        },
        {
          "internalType": "uint256",
          "name": "_amount",
          "type": "uint256"
        }
      ],
      "name": "deposit",
      "outputs": [],
      "stateMutability": "nonpayable",
      "type": "function"
    },
    {
      "inputs": [],
      "name": "destinationChainSelector",
      "outputs": [
        {
          "internalType": "uint64",
          "name": "",
          "type": "uint64"
        }
      ],
      "stateMutability": "view",
      "type": "function"
    },
    {
      "inputs": [],
      "name": "getChainlinkDataFeedLatestAnswer",
      "outputs": [
        {
          "internalType": "int256",
          "name": "",
          "type": "int256"
        }
      ],
      "stateMutability": "view",
      "type": "function"
    },
    {
      "inputs": [],
      "name": "getChainlinkDecimal",
      "outputs": [
        {
          "internalType": "uint8",
          "name": "",
          "type": "uint8"
        }
      ],
      "stateMutability": "view",
      "type": "function"
    },
    {
      "inputs": [],
      "name": "getRouter",
      "outputs": [
        {
          "internalType": "address",
          "name": "",
          "type": "address"
        }
      ],
      "stateMutability": "view",
      "type": "function"
    },
    {
      "inputs": [],
      "name": "owner",
      "outputs": [
        {
          "internalType": "address",
          "name": "",
          "type": "address"
        }
      ],
      "stateMutability": "view",
      "type": "function"
    },
    {
      "inputs": [],
      "name": "protocolRewards",
      "outputs": [
        {
          "internalType": "uint256",
          "name": "",
          "type": "uint256"
        }
      ],
      "stateMutability": "view",
      "type": "function"
    },
    {
      "inputs": [],
      "name": "receiverFacilitator",
      "outputs": [
        {
          "internalType": "address",
          "name": "",
          "type": "address"
        }
      ],
      "stateMutability": "view",
      "type": "function"
    },
    {
      "inputs": [
        {
          "internalType": "address",
          "name": "receiver",
          "type": "address"
        },
        {
          "internalType": "string",
          "name": "text",
          "type": "string"
        },
        {
          "internalType": "uint256",
          "name": "collateral",
          "type": "uint256"
        },
        {
          "internalType": "uint256",
          "name": "amount",
          "type": "uint256"
        },
        {
          "internalType": "uint256",
          "name": "collateralWorth",
          "type": "uint256"
        },
        {
          "internalType": "uint256",
          "name": "id",
          "type": "uint256"
        }
      ],
      "name": "sendMessage",
      "outputs": [
        {
          "internalType": "bytes32",
          "name": "messageId",
          "type": "bytes32"
        }
      ],
      "stateMutability": "nonpayable",
      "type": "function"
    },
    {
      "inputs": [
        {
          "internalType": "address",
          "name": "_receiverFacilitator",
          "type": "address"
        }
      ],
      "name": "setFacilitator",
      "outputs": [],
      "stateMutability": "nonpayable",
      "type": "function"
    },
    {
      "inputs": [
        {
          "internalType": "bytes4",
          "name": "interfaceId",
          "type": "bytes4"
        }
      ],
      "name": "supportsInterface",
      "outputs": [
        {
          "internalType": "bool",
          "name": "",
          "type": "bool"
        }
      ],
      "stateMutability": "pure",
      "type": "function"
    },
    {
      "inputs": [
        {
          "internalType": "address",
          "name": "to",
          "type": "address"
        }
      ],
      "name": "transferOwnership",
      "outputs": [],
      "stateMutability": "nonpayable",
      "type": "function"
    },
    {
      "inputs": [
        {
          "internalType": "address",
          "name": "",
          "type": "address"
        },
        {
          "internalType": "uint256",
          "name": "",
          "type": "uint256"
        }
      ],
      "name": "userBuckets",
      "outputs": [
        {
          "internalType": "uint256",
          "name": "",
          "type": "uint256"
        }
      ],
      "stateMutability": "view",
      "type": "function"
    },
    {
      "inputs": [],
      "name": "withdrawRewards",
      "outputs": [],
      "stateMutability": "nonpayable",
      "type": "function"
    }
  ],
  "transactionHash": "0x37e3c3255c3fd293b9e6148e0fbeb7eca95478ca1fcb0bfd776cc1bc012af30e",
  "args": [
    "0x0bf3de8c5d3e8a2b34d2beeb17abfcebaf363a59",
    "0x779877A7B0D9E8603169DdbD7836e478b4624789",
    "0x99D9903B5C2655DC8eBc2069bA48919f8CE879dc",
    "0x6e7F1a7d1Bac9c7784c7C7Cdb098A727F62E95c7"
  ],
  "numDeployments": 1,
  "solcInputHash": "7708f6c448884aab87a7749622def414",
  "bytecode": "0x60a060405260068054600160a01b600160e01b03191667adecc60412ce25a560a01b1790553480156200003157600080fd5b50604051620019643803806200196483398101604081905262000054916200024e565b833380600081620000ac5760405162461bcd60e51b815260206004820152601860248201527f43616e6e6f7420736574206f776e657220746f207a65726f000000000000000060448201526064015b60405180910390fd5b600080546001600160a01b0319166001600160a01b0384811691909117909155811615620000df57620000df8162000186565b5050506001600160a01b0381166200010e576040516335fdcccd60e21b815260006004820152602401620000a3565b6001600160a01b03908116608052600280546001600160a01b03199081169683169690961790556003805486169482169490941790935560048054731b44f3514812d835eb1bdb0acb33d3fa3351ee4390861617905560058054851692841692909217909155600680549093169116179055620002ab565b336001600160a01b03821603620001e05760405162461bcd60e51b815260206004820152601760248201527f43616e6e6f74207472616e7366657220746f2073656c660000000000000000006044820152606401620000a3565b600180546001600160a01b0319166001600160a01b0383811691821790925560008054604051929316917fed8889f560326eb138920d842192f0eb3dd22b4f139c87a2c57538e05bae12789190a350565b80516001600160a01b03811681146200024957600080fd5b919050565b600080600080608085870312156200026557600080fd5b620002708562000231565b9350620002806020860162000231565b9250620002906040860162000231565b9150620002a06060860162000231565b905092959194509250565b608051611696620002ce6000396000818161028001526108cf01526116966000f3fe608060405234801561001057600080fd5b50600436106101165760003560e01c806385572ffb116100a2578063b2016bd411610071578063b2016bd4146102a4578063bea4dfb5146102b7578063c7b8981c146102bf578063e2bbb158146102c7578063f2fde38b146102da57600080fd5b806385572ffb146102145780638da5cb5b146102275780639b51fb0d14610238578063b0f479a11461027e57600080fd5b8063472a37c5116100e9578063472a37c51461019f57806351b1873d146101ca57806375bcb161146101e4578063780259c9146101f957806379ba50971461020c57600080fd5b806301ffc9a71461011b5780631a9c7ebb1461014357806329df64791461016457806331db1ffc1461016d575b600080fd5b61012e610129366004610f53565b6102ed565b60405190151581526020015b60405180910390f35b610156610151366004610f99565b610324565b60405190815260200161013a565b61015660075481565b60065461018790600160a01b90046001600160401b031681565b6040516001600160401b03909116815260200161013a565b6006546101b2906001600160a01b031681565b6040516001600160a01b03909116815260200161013a565b6101d2610355565b60405160ff909116815260200161013a565b6101f76101f2366004610fc5565b6103d3565b005b6101566102073660046110c9565b6103fd565b6101f761081a565b6101f761022236600461114f565b6108c4565b6000546001600160a01b03166101b2565b61024b610246366004611189565b610923565b604080519586526020860194909452928401919091526001600160a01b031660608301521515608082015260a00161013a565b7f00000000000000000000000000000000000000000000000000000000000000006101b2565b6005546101b2906001600160a01b031681565b610156610972565b6101f76109ea565b6101f76102d53660046111a2565b610a73565b6101f76102e8366004610fc5565b610d1f565b60006001600160e01b031982166385572ffb60e01b148061031e57506001600160e01b031982166301ffc9a760e01b145b92915050565b6009602052816000526040600020818154811061034057600080fd5b90600052602060002001600091509150505481565b6000600460009054906101000a90046001600160a01b03166001600160a01b031663313ce5676040518163ffffffff1660e01b8152600401602060405180830381865afa1580156103aa573d6000803e3d6000fd5b505050506040513d601f19601f820116820180604052508101906103ce91906111c4565b905090565b6103db610d30565b600680546001600160a01b0319166001600160a01b0392909216919091179055565b6000610407610d30565b6040805160a081019091526001600160a01b03881660c08201526000908060e0810160405160208183030381529060405281526020018885898989336040516020016104589695949392919061122d565b60408051601f19818403018152919052815260200160006040519080825280602002602001820160405280156104b457816020015b604080518082019091526000808252602082015281526020019060019003908161048d5790505b5081526003546001600160a01b0316602080830191909152604080518083018252620dbba090819052815160248082019290925282518082039092018252604401825291820180516001600160e01b03166397a657c960e01b179052909101526002546006546040516320487ded60e01b81529293506000926001600160a01b03909216916320487ded9161055f91600160a01b9091046001600160401b0316908690600401611272565b602060405180830381865afa15801561057c573d6000803e3d6000fd5b505050506040513d601f19601f820116820180604052508101906105a0919061134b565b6003546040516370a0823160e01b81523060048201529192506001600160a01b0316906370a0823190602401602060405180830381865afa1580156105e9573d6000803e3d6000fd5b505050506040513d601f19601f8201168201806040525081019061060d919061134b565b8111156106a9576003546040516370a0823160e01b81523060048201526001600160a01b03909116906370a0823190602401602060405180830381865afa15801561065c573d6000803e3d6000fd5b505050506040513d601f19601f82011682018060405250810190610680919061134b565b604051634787a10360e11b81526004810191909152602481018290526044015b60405180910390fd5b60035460025460405163095ea7b360e01b81526001600160a01b0391821660048201526024810184905291169063095ea7b3906044016020604051808303816000875af11580156106fe573d6000803e3d6000fd5b505050506040513d601f19601f820116820180604052508101906107229190611364565b506002546006546040516396f4e9f960e01b81526001600160a01b03909216916396f4e9f99161076891600160a01b9091046001600160401b0316908690600401611272565b6020604051808303816000875af1158015610787573d6000803e3d6000fd5b505050506040513d601f19601f820116820180604052508101906107ab919061134b565b600654600354604051929550600160a01b9091046001600160401b03169185917fd36445359b3c6e26c120659aef090ce0f2eb005cf9af450d11aa1225609b4f4d91610806918e918e916001600160a01b0316908890611386565b60405180910390a350509695505050505050565b6001546001600160a01b0316331461086d5760405162461bcd60e51b815260206004820152601660248201527526bab9ba10313290383937b837b9b2b21037bbb732b960511b60448201526064016106a0565b60008054336001600160a01b0319808316821784556001805490911690556040516001600160a01b0390921692909183917f8be0079c531659141344cd1fd0a4f28419497f9722a3daafe3b4186f6b6457e091a350565b336001600160a01b037f0000000000000000000000000000000000000000000000000000000000000000161461090f576040516335fdcccd60e21b81523360048201526024016106a0565b61092061091b826114a2565b610d85565b50565b6008818154811061093357600080fd5b6000918252602090912060049091020180546001820154600283015460039093015491935091906001600160a01b03811690600160a01b900460ff1685565b6004805460408051633fabe5a360e21b8152905160009384936001600160a01b03169263feaf968c928183019260a0928290030181865afa1580156109bb573d6000803e3d6000fd5b505050506040513d601f19601f820116820180604052508101906109df9190611568565b509195945050505050565b6109f2610d30565b60055460075460405163a9059cbb60e01b815233600482015260248101919091526001600160a01b039091169063a9059cbb906044016020604051808303816000875af1158015610a47573d6000803e3d6000fd5b505050506040513d601f19601f82011682018060405250810190610a6b9190611364565b506000600755565b6005546040516323b872dd60e01b8152336004820152306024820152604481018490526001600160a01b03909116906323b872dd906064016020604051808303816000875af1158015610aca573d6000803e3d6000fd5b505050506040513d601f19601f82011682018060405250810190610aee9190611364565b5060006012610afb610355565b60ff1684610b07610972565b610b1191906115ce565b610b1b91906115e5565b610b2591906115e5565b905081610b336002836115e5565b1015610b725760405162461bcd60e51b815260206004820152600e60248201526d1b1bddc818dbdb1b185d195c985b60921b60448201526064016106a0565b80151580610b7f57508115155b610bbc5760405162461bcd60e51b815260206004820152600e60248201526d1b1bddc818dbdb1b185d195c985b60921b60448201526064016106a0565b60065460408051808201909152600781526611115413d4d25560ca1b6020820152600854610bfa926001600160a01b031691908690869086906103fd565b50336000818152600960209081526040808320600880548254600180820185559387528587200155825160a0810184529889529288019687529087019485526060870193845260808701838152825491820183559190925294517ff3f7a9fe364faab93b216da50a3214154f22a0a2b415b23a84c8169e8b636ee360049092029182015592517ff3f7a9fe364faab93b216da50a3214154f22a0a2b415b23a84c8169e8b636ee484015590517ff3f7a9fe364faab93b216da50a3214154f22a0a2b415b23a84c8169e8b636ee5830155517ff3f7a9fe364faab93b216da50a3214154f22a0a2b415b23a84c8169e8b636ee6909101805492516001600160a01b039092166001600160a81b031990931692909217600160a01b91151591909102179055565b610d27610d30565b61092081610eaa565b6000546001600160a01b03163314610d835760405162461bcd60e51b815260206004820152601660248201527527b7363c9031b0b63630b1363290313c9037bbb732b960511b60448201526064016106a0565b565b6000808260600151806020019051810190610da09190611607565b91509150600060088381548110610db957610db9611637565b600091825260209091206003600490920201908101805460ff60a01b1916600160a01b17905560055481549192506001600160a01b03169063a9059cbb908490610e05906064906115e5565b610e109060636115ce565b6040516001600160e01b031960e085901b1681526001600160a01b03909216600483015260248201526044016020604051808303816000875af1158015610e5b573d6000803e3d6000fd5b505050506040513d601f19601f82011682018060405250810190610e7f9190611364565b508054610e8e906064906115e5565b60076000828254610e9f919061164d565b909155505050505050565b336001600160a01b03821603610f025760405162461bcd60e51b815260206004820152601760248201527f43616e6e6f74207472616e7366657220746f2073656c6600000000000000000060448201526064016106a0565b600180546001600160a01b0319166001600160a01b0383811691821790925560008054604051929316917fed8889f560326eb138920d842192f0eb3dd22b4f139c87a2c57538e05bae12789190a350565b600060208284031215610f6557600080fd5b81356001600160e01b031981168114610f7d57600080fd5b9392505050565b6001600160a01b038116811461092057600080fd5b60008060408385031215610fac57600080fd5b8235610fb781610f84565b946020939093013593505050565b600060208284031215610fd757600080fd5b8135610f7d81610f84565b634e487b7160e01b600052604160045260246000fd5b604080519081016001600160401b038111828210171561101a5761101a610fe2565b60405290565b60405160a081016001600160401b038111828210171561101a5761101a610fe2565b604051601f8201601f191681016001600160401b038111828210171561106a5761106a610fe2565b604052919050565b60006001600160401b0383111561108b5761108b610fe2565b61109e601f8401601f1916602001611042565b90508281528383830111156110b257600080fd5b828260208301376000602084830101529392505050565b60008060008060008060c087890312156110e257600080fd5b86356110ed81610f84565b955060208701356001600160401b0381111561110857600080fd5b8701601f8101891361111957600080fd5b61112889823560208401611072565b96999698505050506040850135946060810135946080820135945060a09091013592509050565b60006020828403121561116157600080fd5b81356001600160401b0381111561117757600080fd5b820160a08185031215610f7d57600080fd5b60006020828403121561119b57600080fd5b5035919050565b600080604083850312156111b557600080fd5b50508035926020909101359150565b6000602082840312156111d657600080fd5b815160ff81168114610f7d57600080fd5b6000815180845260005b8181101561120d576020818501810151868301820152016111f1565b506000602082860101526020601f19601f83011685010191505092915050565b60c08152600061124060c08301896111e7565b6020830197909752506040810194909452606084019290925260808301526001600160a01b031660a090910152919050565b600060406001600160401b038516835260208181850152845160a08386015261129e60e08601826111e7565b905081860151603f19808784030160608801526112bb83836111e7565b88860151888203830160808a01528051808352908601945060009350908501905b8084101561130e57845180516001600160a01b03168352860151868301529385019360019390930192908601906112dc565b5060608901516001600160a01b031660a08901526080890151888203830160c08a0152955061133d81876111e7565b9a9950505050505050505050565b60006020828403121561135d57600080fd5b5051919050565b60006020828403121561137657600080fd5b81518015158114610f7d57600080fd5b600060018060a01b038087168352608060208401526113a860808401876111e7565b94166040830152506060015292915050565b80356001600160401b03811681146113d157600080fd5b919050565b600082601f8301126113e757600080fd5b610f7d83833560208501611072565b600082601f83011261140757600080fd5b813560206001600160401b0382111561142257611422610fe2565b611430818360051b01611042565b82815260069290921b8401810191818101908684111561144f57600080fd5b8286015b84811015611497576040818903121561146c5760008081fd5b611474610ff8565b813561147f81610f84565b81528185013585820152835291830191604001611453565b509695505050505050565b600060a082360312156114b457600080fd5b6114bc611020565b823581526114cc602084016113ba565b602082015260408301356001600160401b03808211156114eb57600080fd5b6114f7368387016113d6565b6040840152606085013591508082111561151057600080fd5b61151c368387016113d6565b6060840152608085013591508082111561153557600080fd5b50611542368286016113f6565b60808301525092915050565b805169ffffffffffffffffffff811681146113d157600080fd5b600080600080600060a0868803121561158057600080fd5b6115898661154e565b94506020860151935060408601519250606086015191506115ac6080870161154e565b90509295509295909350565b634e487b7160e01b600052601160045260246000fd5b808202811582820484141761031e5761031e6115b8565b60008261160257634e487b7160e01b600052601260045260246000fd5b500490565b6000806040838503121561161a57600080fd5b82519150602083015161162c81610f84565b809150509250929050565b634e487b7160e01b600052603260045260246000fd5b8082018082111561031e5761031e6115b856fea264697066735822122097e3d968be7507d0124ea138ba903e0871155adbdd22a8d43a2b4191707a099b64736f6c63430008140033",
  "devdoc": {
    "kind": "dev",
    "methods": {
      "ccipReceive((bytes32,uint64,bytes,bytes,(address,uint256)[]))": {
        "details": "Note ensure you check the msg.sender is the OffRampRouter",
        "params": {
          "message": "CCIP Message"
        }
      },
      "constructor": {
        "params": {
          "_link": "The address of the link contract.",
          "_router": "The address of the router contract."
        }
      },
      "getRouter()": {
        "returns": {
          "_0": "i_router address"
        }
      },
      "sendMessage(address,string,uint256,uint256,uint256,uint256)": {
        "details": "Assumes your contract has sufficient LINK.",
        "params": {
          "receiver": "The address of the recipient on the destination blockchain.",
          "text": "The string text to be sent."
        },
        "returns": {
          "messageId": "The ID of the message that was sent."
        }
      },
      "supportsInterface(bytes4)": {
        "details": "Should indicate whether the contract implements IAny2EVMMessageReceiver e.g. return interfaceId == type(IAny2EVMMessageReceiver).interfaceId || interfaceId == type(IERC165).interfaceId This allows CCIP to check if ccipReceive is available before calling it. If this returns false or reverts, only tokens are transferred to the receiver. If this returns true, tokens are transferred and ccipReceive is called atomically. Additionally, if the receiver address does not have code associated with it at the time of execution (EXTCODESIZE returns 0), only tokens will be transferred.",
        "params": {
          "interfaceId": "The interfaceId to check"
        },
        "returns": {
          "_0": "true if the interfaceId is supported"
        }
      }
    },
    "title": "- A simple contract for sending string data across chains.",
    "version": 1
  },
  "userdoc": {
    "kind": "user",
    "methods": {
      "acceptOwnership()": {
        "notice": "Allows an ownership transfer to be completed by the recipient."
      },
      "ccipReceive((bytes32,uint64,bytes,bytes,(address,uint256)[]))": {
        "notice": "Called by the Router to deliver a message. If this reverts, any token transfers also revert. The message will move to a FAILED state and become available for manual execution."
      },
      "constructor": {
        "notice": "Constructor initializes the contract with the router address."
      },
      "getRouter()": {
        "notice": "Return the current router"
      },
      "owner()": {
        "notice": "Get the current owner"
      },
      "sendMessage(address,string,uint256,uint256,uint256,uint256)": {
        "notice": "Sends data to receiver on the destination chain."
      },
      "supportsInterface(bytes4)": {
        "notice": "IERC165 supports an interfaceId"
      },
      "transferOwnership(address)": {
        "notice": "Allows an owner to begin transferring ownership to a new address, pending."
      }
    },
    "version": 1
  },
  "storageLayout": {
    "storage": [
      {
        "astId": 268,
        "contract": "contracts/Sender.sol:Sender",
        "label": "s_owner",
        "offset": 0,
        "slot": "0",
        "type": "t_address"
      },
      {
        "astId": 270,
        "contract": "contracts/Sender.sol:Sender",
        "label": "s_pendingOwner",
        "offset": 0,
        "slot": "1",
        "type": "t_address"
      },
      {
        "astId": 6112,
        "contract": "contracts/Sender.sol:Sender",
        "label": "s_router",
        "offset": 0,
        "slot": "2",
        "type": "t_contract(IRouterClient)184"
      },
      {
        "astId": 6115,
        "contract": "contracts/Sender.sol:Sender",
        "label": "s_linkToken",
        "offset": 0,
        "slot": "3",
        "type": "t_contract(LinkTokenInterface)607"
      },
      {
        "astId": 6118,
        "contract": "contracts/Sender.sol:Sender",
        "label": "dataFeed",
        "offset": 0,
        "slot": "4",
        "type": "t_contract(AggregatorV3Interface)512"
      },
      {
        "astId": 6121,
        "contract": "contracts/Sender.sol:Sender",
        "label": "collateralToken",
        "offset": 0,
        "slot": "5",
        "type": "t_contract(IERC20)5395"
      },
      {
        "astId": 6123,
        "contract": "contracts/Sender.sol:Sender",
        "label": "receiverFacilitator",
        "offset": 0,
        "slot": "6",
        "type": "t_address"
      },
      {
        "astId": 6126,
        "contract": "contracts/Sender.sol:Sender",
        "label": "destinationChainSelector",
        "offset": 20,
        "slot": "6",
        "type": "t_uint64"
      },
      {
        "astId": 6128,
        "contract": "contracts/Sender.sol:Sender",
        "label": "protocolRewards",
        "offset": 0,
        "slot": "7",
        "type": "t_uint256"
      },
      {
        "astId": 6132,
        "contract": "contracts/Sender.sol:Sender",
        "label": "buckets",
        "offset": 0,
        "slot": "8",
        "type": "t_array(t_struct(Bucket)6084_storage)dyn_storage"
      },
      {
        "astId": 6137,
        "contract": "contracts/Sender.sol:Sender",
        "label": "userBuckets",
        "offset": 0,
        "slot": "9",
        "type": "t_mapping(t_address,t_array(t_uint256)dyn_storage)"
      }
    ],
    "types": {
      "t_address": {
        "encoding": "inplace",
        "label": "address",
        "numberOfBytes": "20"
      },
      "t_array(t_struct(Bucket)6084_storage)dyn_storage": {
        "base": "t_struct(Bucket)6084_storage",
        "encoding": "dynamic_array",
        "label": "struct Bucket[]",
        "numberOfBytes": "32"
      },
      "t_array(t_uint256)dyn_storage": {
        "base": "t_uint256",
        "encoding": "dynamic_array",
        "label": "uint256[]",
        "numberOfBytes": "32"
      },
      "t_bool": {
        "encoding": "inplace",
        "label": "bool",
        "numberOfBytes": "1"
      },
      "t_contract(AggregatorV3Interface)512": {
        "encoding": "inplace",
        "label": "contract AggregatorV3Interface",
        "numberOfBytes": "20"
      },
      "t_contract(IERC20)5395": {
        "encoding": "inplace",
        "label": "contract IERC20",
        "numberOfBytes": "20"
      },
      "t_contract(IRouterClient)184": {
        "encoding": "inplace",
        "label": "contract IRouterClient",
        "numberOfBytes": "20"
      },
      "t_contract(LinkTokenInterface)607": {
        "encoding": "inplace",
        "label": "contract LinkTokenInterface",
        "numberOfBytes": "20"
      },
      "t_mapping(t_address,t_array(t_uint256)dyn_storage)": {
        "encoding": "mapping",
        "key": "t_address",
        "label": "mapping(address => uint256[])",
        "numberOfBytes": "32",
        "value": "t_array(t_uint256)dyn_storage"
      },
      "t_struct(Bucket)6084_storage": {
        "encoding": "inplace",
        "label": "struct Bucket",
        "members": [
          {
            "astId": 6075,
            "contract": "contracts/Sender.sol:Sender",
            "label": "collateral",
            "offset": 0,
            "slot": "0",
            "type": "t_uint256"
          },
          {
            "astId": 6077,
            "contract": "contracts/Sender.sol:Sender",
            "label": "amount",
            "offset": 0,
            "slot": "1",
            "type": "t_uint256"
          },
          {
            "astId": 6079,
            "contract": "contracts/Sender.sol:Sender",
            "label": "CollateralWorth",
            "offset": 0,
            "slot": "2",
            "type": "t_uint256"
          },
          {
            "astId": 6081,
            "contract": "contracts/Sender.sol:Sender",
            "label": "user",
            "offset": 0,
            "slot": "3",
            "type": "t_address"
          },
          {
            "astId": 6083,
            "contract": "contracts/Sender.sol:Sender",
            "label": "drained",
            "offset": 20,
            "slot": "3",
            "type": "t_bool"
          }
        ],
        "numberOfBytes": "128"
      },
      "t_uint256": {
        "encoding": "inplace",
        "label": "uint256",
        "numberOfBytes": "32"
      },
      "t_uint64": {
        "encoding": "inplace",
        "label": "uint64",
        "numberOfBytes": "8"
      }
    }
  }
}